:100000000C943A000C9457000C9457000C94570031
:100010000C9457000C9457000C9457000C94570004
:100020000C9457000C9457000C9457000C945700F4
:100030000C9457000C9457000C9457000C945700E4
:100040000C9457000C9457000C9457000C945700D4
:100050000C9457000C9457000C9457000C945700C4
:100060000C9457000C9457000C9457000C945700B4
:100070000C94570011241FBECFEFD4E0DEBFCDBFDC
:1000800011E0A0E0B1E0EEEAF9E002C005900D92C7
:10009000A035B107D9F721E0A0E5B1E001C01D927C
:1000A000A935B207E1F70E945A040C94D5040C94C8
:1000B0000000EF92FF920F931F93CF93DF9300D036
:1000C000CDB7DEB7062F89839A830E944C028981BF
:1000D000E82E9A81F92E10E0101749F061E0F7013F
:1000E000819191917F010E949B011F5FF5CF0F903D
:1000F0000F90DF91CF911F910F91FF90EF90089596
:1001000063E00E9459000C947103E1E6F0E080E89E
:1001100080831082A89584B7877F84BFE0E6F0E0F3
:1001200080818861808310820895853098F46730DB
:1001300088F421E030E001C0220F6A95EAF7E82F49
:10014000F0E0EF5AFE4F922F909580818923411164
:10015000822B80830895853080F4673070F4E82F17
:10016000F0E0EF5AFE4F81E090E001C0880F6A9501
:10017000EAF79081982381E009F480E00895609186
:100180005001E62FF0E0EF5AFE4F80810E940D01F2
:10019000809150018F5F853018F48093500108954D
:1001A000109250010895E1E5F1E01082118212826F
:1001B0001382148208950E94EB000C94D3009C01DA
:1001C000FC01FF2784A1832B84A395A1892F832B76
:1001D00085A381E00895CF93DF93C1E4D1E08991B5
:1001E00099910E94DF0081E0CF34D807C1F783E006
:1001F00090E40E94DF0080E090E80E94DF0083E04E
:1002000090E10E94DF0083E090E80E94DF0083E03D
:1002100090E2DF91CF910C94DF00E0915601F0E085
:10022000EE0FFF1FE95CFE4F20813181F901FF27AE
:1002300095A1932B95A3E1E4F1E097E02081318132
:10024000D901BB2795962C91959780FF03C03095D7
:10025000232301C0232B95962C938695915032969B
:100260009111ECCFE62FF0E0EE0FFF1FE95CFE4F9F
:1002700080819181FC01FF2785A19095892385A329
:10028000609356010895009789F0FC012381621B59
:1002900067FD09C0062E000C770B248130E081E059
:1002A000621773070CF080E08170089580E0089574
:1002B000CF93DF93FC01A62F822F309771F16181DC
:1002C000461758F59281291740F59381A91BA7FD80
:1002D00024C00A2E000CBB0BC481D0E0AC17BD07B4
:1002E000E4F40E949804480F658170E0CD010E94FB
:1002F000A1040696242F269526952695E80FF91F2A
:10030000E20FF11D9081892F90E0477002C0959512
:1003100087954A95E2F7817001C080E0DF91CF9127
:10032000089541E0611101C040E0692F0C949500EF
:10033000692F0C94AB0041E0611101C040E0692FCE
:100340000C9495004F925F926F927F928F929F9242
:10035000AF92BF92CF92DF92EF92FF920F931F93D3
:10036000CF93DF931F92CDB7DEB7862E942E5C011C
:10037000E62EF72E262F660F330B281B310987FD3B
:100380003395072F072E000C110B091B110997FD40
:10039000139537FF03C077247A9402C077247394AF
:1003A00017FF03C066246A9402C06624639429017F
:1003B00037FF03C051944194510817FF03C01195B2
:1003C0000195110940165106A4F06201D594C79415
:1003D000F92EA81421F1692D8A2D9F2D0E949B01D1
:1003E000C01AD10AD7FE03C0C40CD51CF60CA70C4A
:1003F000F0CF6801D594C794E82EB71681F0692D27
:100400008E2D9B2D79830E949B01C418D50879817C
:10041000D7FE03C0C00ED11EE70CB60CEECF692D7F
:10042000C7010F90DF91CF911F910F91FF90EF9037
:10043000DF90CF90BF90AF909F908F907F906F9004
:100440005F904F900C949B01FF920F931F93CF935B
:10045000DF93D82FF92E162FC72F042F792F0E9444
:10046000A201402F6D2F7C2F8D2F9F2D0E94A20166
:10047000402F612F7C2F812F9F2D0E94A201402FA2
:10048000612F7C2F8D2F9C2F0E94A201DF91CF9195
:100490001F910F91FF9008950E94D300E0E0F1E0DA
:1004A000118A14860895DF92EF92FF920F931F93A3
:1004B000CF93DF93D82E7B01162F0F2D8091020151
:1004C00090910301C0E00197A1F50F2D0C1BE09165
:1004D0000801F09109018181C817C0F4D0E0809132
:1004E000080190910901FC012281D21768F42D2F97
:1004F0004C2F6D2D0E945801682F8D2F8E0D902F3F
:100500000E949B01DF5FEBCFCF5FDFCFC0E0E091C8
:100510000801F09109018281C81740F460E08C2F36
:100520008E0D902F0E949B01CF5FF1CF015031C003
:10053000CF5F1C2F1E0DE0910801F0910901818110
:10054000C817B0F4D0E08091080190910901FC0136
:100550002281D21768F72D2F4C2F6D2D0E94580144
:10056000682F812F9D2F9F0D0E949B01DF5FEBCF96
:10057000C0E0E0910801F09109018281C81740F4C0
:1005800060E0812F9C2F9F0D0E949B01CF5FF1CFD8
:100590001F5F812F902FDF91CF911F910F91FF90BF
:1005A000EF90DF9008951F93CF93DF93182FEC0106
:1005B0008C2F811B9991992351F0892F0E9453020E
:1005C000BC018C2F811B653014F477FFF1CFDF91D4
:1005D000CF911F9108950F931F93CF93DF93EC0159
:1005E0009B0110920C0140930D011092100100919B
:1005F0000801109109010115110509F449C0F8011C
:100600008181609106017091070190E00E94A10430
:10061000BC0180910A0190910B010E94B204CB01B0
:100620006AE070E00E94A10490930F0180930E0194
:10063000309305012093040140E250E0BE0181E1C6
:1006400091E00E94C6048091000190910101019700
:10065000F9F4FE0101900020E9F7CF010197F801BC
:100660009181692F70E06F5F7F4F8C1B0E9498040F
:10067000815020910201309103012130310511F0A8
:1006800095E001C097E0981718F48EEF8093100161
:10069000DF91CF911F910F91089520910201309128
:1006A00003012130310511F070E001C076E04FEF19
:1006B00060E00E94EB02089590E090930701809320
:1006C000060108959093010180930001089590938D
:1006D000030180930201089590930901809308011A
:1006E0000895809157019091580101969093580177
:1006F0008093570120910E0130910F0182179307CB
:1007000008F469C01092580110925701E0910C0151
:10071000F0E0E050FF4F818981110AC080910D0106
:10072000823008F458C0815080930D0110920C0162
:1007300080910C0190E0FC01E050FF4F21892223C1
:1007400009F449C04091000150910101209110012C
:100750004115510521F04130510599F024C0211176
:1007600022C060910401709105018F5E9E4F0E942E
:10077000D30290E0019790910C01890F80930C01B6
:1007800012C06091040170910501409102015091E5
:1007900003014130510511F4720F01C0621B8F5EDD
:1007A0009E4F0E94D302809110018F5F80931001B1
:1007B000082E000C990BE0910801F09109012181AC
:1007C00030E0281739073CF41092100180910C0199
:1007D0008F5F80930C010C94BF00CF93DF93C0E038
:1007E000D1E09B878A870E94DB0084E190E09F83B1
:1007F0008E83DF91CF910C944C021092800084E0A4
:100800008093810010928500109284000895809159
:100810008400909185000895AC01809184009091AE
:1008200085009C01241B350B283E3340B0F708950A
:100830002091840030918500820F931F0C940C044A
:10084000182F092FF62E0E94FD030E940704C12FC6
:10085000D02F8E819F810E940C04E881F9818A81CA
:100860009B8109958E819F812C813D81280F391FA5
:100870003F832E830E940704E12FF02FAFEFBFEFDD
:1008800040E04F1531F326813781BC01621B730BA9
:100890009B012F3F7FE7370710F4EF01DACF319547
:1008A000219531092A173B0710F4D901EF014F5F59
:1008B0003896E7CF0F931F93CF93DF93CDB7DEB773
:1008C0002E970FB6F894DEBF0FBECDBF86E0E1E3F2
:1008D000F1E0DE01199601900D928A95E1F78E0103
:1008E0000F5F1F4F88E0F80111928A95E9F780E8C1
:1008F00090E09A838983CE0109969C838B838FE055
:1009000090E09E838D8380ED97E00E94ED0361E08F
:10091000C8010E94200480E090E02E960FB6F89463
:10092000DEBF0FBECDBFDF91CF911F910F91089514
:10093000002480FD060E660F11F08695D1F7802DFC
:1009400008950024552704C0080E591F880F991FC9
:10095000009729F076956795B8F37105B9F7802D62
:10096000952F0895AA1BBB1B51E107C0AA1FBB1FEF
:10097000A617B70710F0A61BB70B881F991F5A952B
:10098000A9F780959095BC01CD010895FB01DC018C
:100990004150504048F001900D920020C9F701C02D
:0E09A0001D9241505040E0F70895F894FFCFAB
:1009AE000000000000001400000000000000000025
:1009BE000000000000000000000000000000000029
:1009CE000000000000000000000000000000000019
:1009DE0000010102020303034000800310038003A1
:1009EE00200040002000100008000400020001005A
:00000001FF
