:100000000C943A000C9457000C9457000C94570031
:100010000C9457000C9457000C9457000C94570004
:100020000C9457000C9457000C9457000C945700F4
:100030000C9457000C9457000C9457000C945700E4
:100040000C9457000C9457000C9457000C945700D4
:100050000C9457000C9457000C9457000C945700C4
:100060000C9457000C9457000C9457000C945700B4
:100070000C94570011241FBECFEFD4E0DEBFCDBFDC
:1000800012E0A0E0B1E0E0EFF8E102C005900D92CF
:10009000A633B107D9F722E0A6E3B2E001C01D9272
:1000A000A835B207E1F70E94380A0C94760C0C943C
:1000B00000000C9491010C94B2010C9497010C94E3
:1000C0009D010C94A3010E94A3010E949D0188231D
:1000D000E1F38CE291E00197F1F70E949101811127
:1000E0000C945B0008950C94B901CF93DF9300D07A
:1000F0001F92CDB7DEB780ED90E09A83898388E0C8
:100100008B83509A589A0E9464018FE690E00E9477
:10011000FB0081E090E00E94530161E070E081E02B
:1001200090E00E943F010E942B01CE0101960E94A7
:1001300079010F900F900F90DF91CF910895CF9399
:10014000DF93DC01562FFB0160E070E0C1E0D0E0FE
:100150008E2F851B8417B8F49191BE01092E02C021
:10016000660F771F0A94E2F76F5F7F4F769567956A
:100170006A0F7B1F02C0769567959A95E2F76F3FED
:10018000710509F028F7F9016083DF91CF91089597
:10019000E1E6F0E080E880831082A89584B7877F4D
:1001A00084BFE0E6F0E0808188618083108208955A
:1001B0001092800084E0809381001092850010925C
:1001C0008400089580918400909185000895AC0189
:1001D00080918400909185009C01241B350B283E62
:1001E0003340B0F708952091840030918500820F4C
:1001F000931F0C94E700CF93DF931F92CDB7DEB728
:100200009E012F5F3F4F45E06FEA71E00E949F0023
:1002100091E0980F909300019981915097BD18BC7F
:1002200095B5977039F095B5209100012770987FAA
:10023000922B95BD298130E0E82FF0E0E155FE4F8B
:10024000C901008002C0880F991F0A94E2F70F903D
:10025000DF91CF91089585B3897F85BB85B5909156
:1002600000019770887F892B85BD089585B5887FAB
:1002700085BD089585B382FB882780F9089500978E
:1002800019F0019741F0089584B56295660F660FE5
:10029000607C8F7305C084B563706295607F8F7CCE
:1002A000682B64BD0895009741F0019759F484B517
:1002B0008E7F84BD84B5826002C084B58C7F84BD8E
:1002C00081E0089580E0089514BC15BC16BC18BCEC
:1002D00084B58E7F84BD84B5826084BD81E008953D
:1002E0009C01215031093093CD0081508093CC0086
:1002F0000895CF93DF93EC01888199810E9470016A
:100300008A819BEF980F943008F088E098E19093F1
:10031000C9008550880F8093CA0081E0DF91CF919A
:1003200008958091C800881F8827881F08958091AC
:10033000C80085FB882780F908958091C80086FB56
:10034000882780F90895CF93C82F0E9497018823AA
:10035000E1F39091C80090649093C800C093CE00E0
:10036000CF9108958091C80087FFFCCF8091CE0087
:100370000895CF93DF93EC018991882319F00E94AF
:10038000A301FACFDF91CF910895853098F46730BB
:1003900088F421E030E001C0220F6A95EAF7E82FE7
:1003A000F0E0E55CFD4F922F90958081892341110B
:1003B000822B80830895853080F4673070F4E82FB5
:1003C000F0E0E55CFD4F81E090E001C0880F6A95A8
:1003D000EAF79081982381E009F480E00895609124
:1003E0003A02E62FF0E0E55CFD4F80810E943D027D
:1003F00080913A028F5F853018F480933A02089515
:1004000010923A020895EBE3F2E010821182128218
:100410001382148208950E941B020C9403029C0113
:10042000FC01FF2784A1832B84A395A1892F832B13
:1004300085A381E00895CF93DF93CEEBD1E089913E
:1004400099910E940F0281E0CC3CD807C1F783E06C
:1004500090E40E940F0280E090E80E940F0283E087
:1004600090E10E940F0283E090E80E940F0283E077
:1004700090E2DF91CF910C940F02E0914002F0E006
:10048000EE0FFF1FEC54FE4F20813181F901FF2751
:1004900095A1932B95A3EEEBF1E097E020813181BC
:1004A000D901BB2795962C91959780FF03C0309575
:1004B000232301C0232B95962C9386959150329639
:1004C0009111ECCFE62FF0E0EE0FFF1FEC54FE4F42
:1004D00080819181FC01FF2785A19095892385A3C7
:1004E0006093400208956230710511F168F4613043
:1004F000710551F5FC01FF2724A1892F8095922FCA
:10050000982394A395A112C06330710541F0643023
:100510007105D1F4FC01FF2784A1892B0FC0FC01D8
:10052000FF2784A1892B84A385A19095892309C0E5
:10053000FC01FF2724A1892F8095822384A385A114
:10054000892B85A381E0089580E00895E82FF0E0ED
:10055000EE0FFF1FEF5BFD4F8081882321F091811B
:1005600081E0892702C080E090E081700895E82F43
:10057000F0E0EE0FFF1FEF5BFD4F8081811102C0A5
:10058000818102C080E090E081700895E82FF0E062
:10059000EE0FFF1FEF5BFD4F80810895E82FF0E025
:1005A000EE0FFF1FEF5BFD4F908181E089270895DB
:1005B0006F927F928F929F92AF92BF92CF92DF9273
:1005C000EF92FF920F931F93CF93DF9300D0CDB79D
:1005D000DEB721E4622E22E0722E3CECC32E31E025
:1005E000D32E812C46E0942EF30180818183F60185
:1005F000019111916F015801BB24F50184A1E12EF5
:10060000FF2425A130E02E213F2141E0232B09F4D6
:1006100040E090E08E219F21892B29F0411108C0F4
:1006200023E030E00AC0411106C021E030E005C0FF
:1006300024E030E002C022E030E064E070E0C80175
:1006400029833A830E94730262E070E0C8010E942D
:100650007302892D8A95F1F7F50183A190E0E822D4
:10066000F92281E029813A81EF2809F080E0F30145
:100670008083B901C8010E9473028394F2E06F0E77
:10068000711C85E08812B0CF0F900F90DF91CF9151
:100690001F910F91FF90EF90DF90CF90BF90AF90A0
:1006A0009F908F907F906F9008950895009789F0A4
:1006B000FC012381621B67FD09C0062E000C770B2D
:1006C000248130E081E0621773070CF080E08170D4
:1006D000089580E00895CF93DF93FC01A62F822F29
:1006E000309771F16181461758F59281291740F5CD
:1006F0009381A91BA7FD24C00A2E000CBB0BC4814B
:10070000D0E0AC17BD07E4F40E94530B480F65819D
:1007100070E0CD010E945C0B0696242F269526954D
:100720002695E80FF91FE20FF11D9081892F90E0C7
:10073000477002C0959587954A95E2F7817001C090
:1007400080E0DF91CF910895CF93DF93EC010E9479
:10075000D8009E0140E050E062E17AE780E090E05E
:100760000E94C30B30934E0220934D02DF91CF9134
:10077000089580914B0290914C020E94E7002091D5
:100780004B0230914C0280914D0290914E02820FAB
:10079000931F90934C0280934B02089541E06111A6
:1007A00001C040E0692F0C94C501692F0C94DB0156
:1007B00041E0611101C040E0692F0C94C5014F92E6
:1007C0005F926F927F928F929F92AF92BF92CF92E1
:1007D000DF92EF92FF920F931F93CF93DF931F92BD
:1007E000CDB7DEB7862E942E5C01E62EF72E262F8F
:1007F000660F330B281B310987FD3395072F072E12
:10080000000C110B091B110997FD139537FF03C04D
:1008100077247A9402C07724739417FF03C0662468
:100820006A9402C066246394290137FF03C051947F
:100830004194510817FF03C0119501951109401605
:100840005106A4F06201D594C794F92EA81421F1A1
:10085000692D8A2D9F2D0E94D803C01AD10AD7FE78
:1008600003C0C40CD51CF60CA70CF0CF6801D594BE
:10087000C794E82EB71681F0692D8E2D9B2D7983B4
:100880000E94D803C418D5087981D7FE03C0C00ED2
:10089000D11EE70CB60CEECF692DC7010F90DF918A
:1008A000CF911F910F91FF90EF90DF90CF90BF906D
:1008B000AF909F908F907F906F905F904F900C942F
:1008C000D803FF920F931F93CF93DF93D82FF92E66
:1008D000162FC72F042F792F0E94DF03402F6D2F73
:1008E0007C2F8D2F9F2D0E94DF03402F612F7C2FA7
:1008F000812F9F2D0E94DF03402F612F7C2F8D2F92
:100900009C2F0E94DF03DF91CF911F910F91FF90E9
:1009100008950E940302E1E0F1E0118A148608952F
:10092000DF92EF92FF920F931F93CF93DF93D82E16
:100930007B01162F0F2D8091030190910401C0E0DF
:100940000197A1F50F2D0C1BE0910901F0910A010F
:100950008181C817C0F4D0E08091090190910A010B
:10096000FC012281D21768F42D2F4C2F6D2D0E948F
:100970006B03682F8D2F8E0D902F0E94D803DF5FA1
:10098000EBCFCF5FDFCFC0E0E0910901F0910A012A
:100990008281C81740F460E08C2F8E0D902F0E944A
:1009A000D803CF5FF1CF015031C0CF5F1C2F1E0D98
:1009B000E0910901F0910A018181C817B0F4D0E0FB
:1009C0008091090190910A01FC012281D21768F7F8
:1009D0002D2F4C2F6D2D0E946B03682F812F9D2F83
:1009E0009F0D0E94D803DF5FEBCFC0E0E0910901CB
:1009F000F0910A018281C81740F460E0812F9C2F9A
:100A00009F0D0E94D803CF5FF1CF1F5F812F902FE2
:100A1000DF91CF911F910F91FF90EF90DF9008959C
:100A20001F93CF93DF93182FEC018C2F811B99918B
:100A3000992351F0892F0E949004BC018C2F811BB7
:100A4000653014F477FFF1CFDF91CF911F910895B6
:100A50000F931F93CF93DF93EC019B0110920D0135
:100A600040930E01109211010091090110910A01A9
:100A70000115110509F449C0F80181816091070150
:100A80007091080190E00E945C0BBC0180910B0109
:100A900090910C010E94790BCB016AE070E00E94FA
:100AA0005C0B9093100180930F013093060120930B
:100AB000050140E250E0BE0182E191E00E94670C36
:100AC00080910101909102010197F9F4FE010190DA
:100AD0000020E9F7CF010197F8019181692F70E0BB
:100AE0006F5F7F4F8C1B0E94530B8150209103013D
:100AF000309104012130310511F095E001C097E0FB
:100B0000981718F48EEF80931101DF91CF911F9108
:100B10000F91089520910301309104012130310596
:100B200011F070E001C076E04FEF60E00E94280510
:100B3000089590E0909308018093070108959093A1
:100B400002018093010108959093040180930301B1
:100B5000089590930A0180930901089580914F02AE
:100B60009091500201969093500280934F022091F1
:100B70000F01309110018217930708F469C0109299
:100B8000500210924F02E0910D01F0E0EF5FFE4F36
:100B9000818981110AC080910E01823008F458C009
:100BA000815080930E0110920D0180910D0190E013
:100BB000FC01EF5FFE4F2189222309F449C04091D7
:100BC000010150910201209111014115510521F0BF
:100BD0004130510599F024C0211122C060910501D6
:100BE000709106018E5E9E4F0E94100590E0019765
:100BF00090910D01890F80930D0112C06091050144
:100C0000709106014091030150910401413051055A
:100C100011F4720F01C0621B8E5E9E4F0E94100580
:100C2000809111018F5F80931101082E000C990BA8
:100C3000E0910901F0910A01218130E0281739077C
:100C40003CF41092110180910D018F5F80930D0192
:100C50000C94EF01CF93DF93C1E0D1E09B878A87AB
:100C60000E940B0284E190E09F838E83DF91CF91FD
:100C70000C94890410923201809351020895FF92DE
:100C80000F931F93CF93DF93182F092FF62E81E038
:100C9000809332010E94D8000E94E200C12FD02F21
:100CA00080913201882389F18E819F810E94E70023
:100CB000E881F9818A819B8109958E819F812C81B0
:100CC0003D81280F391F3F832E830E94E200E12FD0
:100CD000F02FAFEFBFEF40E04F1511F326813781C2
:100CE000BC01621B730B9B012F3F7FE7370758F056
:100CF0003195219531092A173B0710F4D901EF01ED
:100D00004F5F3896E9CFEF01CBCF80915102DF9151
:100D1000CF911F910F91FF9008951F93CF93DF9371
:100D2000EC01162F8AA5861304C08A810E94F60959
:100D300005C063E080E00E94090A8E8B8AA58113BA
:100D400006C08B81DF91CF911F910C94F60961E071
:100D500080E00E94090A91E0811101C090E09F8B20
:100D6000DF91CF911F9108959C01809153028111D1
:100D700014C060915202623030F491E06927C901D9
:100D800044960E94A4098091520290E0019663E08B
:100D900070E00E948D0B809352020E94AE058091FC
:100DA000530290E0019665E070E00E948D0B809305
:100DB00053020895CF93DF93FB019081913079F036
:100DC000EB010E9454092E81281306C081E02F8177
:100DD000291303C080E001C081E0817001C081E07F
:100DE000DF91CF910895CF93DF93FC0123812223DC
:100DF00009F449C0EC010E9489040E94AE050E94DA
:100E0000D8020E94890461E088A599A50E94D803B0
:100E100061E0CE010E94A409CE010E94B40680E0E8
:100E20000E94A602882341F0BE0180E00E94DA06FB
:100E3000882311F01A8227C082E00E94A60288232C
:100E400041F0BE0182E00E94DA06882311F082E0C0
:100E500019C083E00E94A602882341F0BE0183E00E
:100E60000E94DA06882311F083E00CC081E00E9422
:100E7000A602882341F0BE0181E00E94DA068823A1
:100E800011F081E08A83DF91CF910895BF92CF92D4
:100E9000DF92EF92FF920F931F93CF93DF93CDB723
:100EA000DEB7A0970FB6F894DEBF0FBECDBF8C01A2
:100EB00061E00E948D0662E0C8010E948D06D801A3
:100EC00013968C911397882309F480C057968C91C0
:100ED000882309F47EC0C8010E9473097801B4E137
:100EE000EB0EF11CC7010E947309B801C8010E94F2
:100EF000CF09882319F0F801138210C0B701C80187
:100F00000E94CF098111F7CFD80158966D917C913D
:100F10005997C8010E94C2098111EDCFF80160A55F
:100F200071A5C8010E94C2098823E9F1C8010E9485
:100F30004D09D8018C915496BC9098012C5F3F4F7D
:100F4000FE01319690E0BF01981741F0D9014D9113
:100F50005D919D01419351939F5FF6CF7801B8E178
:100F6000EB0EF11C482F50E0440F551F20E030E0FD
:100F70002B1580F4F901EE0FFF1FE40FF51FE60FAC
:100F8000F71FD701CD90DD907D01D182C0822F5F08
:100F90003F4FEECF8B0D0E94BB08F80191A780A7B1
:100FA0000E94250A3BC0D80198966D917C91999733
:100FB000C7010E94C209882389F1C7010E944D0917
:100FC0000E942D0AF80191A780A728C0C8010E949D
:100FD0007309D80157968C91811104C0C8014496B9
:100FE0000E947309F8019081848991110EC08111CA
:100FF00006C00E9489040E94AE0582E00DC00E94D6
:1010000089040E94AE0580E007C0811107C00E94DC
:1010100089040E94AE0581E00E943A060E9489047C
:1010200061E0D80198968D919C9199970E94D80380
:1010300061E0C8010E94A409C8010E94B406A096FC
:101040000FB6F894DEBF0FBECDBFDF91CF911F91D9
:101050000F91FF90EF90DF90CF90BF900895EF92A7
:10106000FF920F93CF93DF93CDB7DEB7C755D1096A
:101070000FB6F894DEBF0FBECDBF8BA79E012F5FCA
:101080003F4F79018130B9F400E022E046E060E0B2
:10109000CE018C5B9F4F0E94410984E1FE01EC5B15
:1010A000FF4FD70101900D928A95E1F702E022E00F
:1010B00040E064E016C002E022E040E064E0CE01DF
:1010C0008C5B9F4F0E94410984E1FE01EC5BFF4F66
:1010D000D70101900D928A95E1F700E022E046E009
:1010E00060E0CE018C5B9F4F0E94410984E1FE01CC
:1010F000EC5BFF4FDE01559601900D928A95E1F76A
:1011000082E089A783E08AA7CE018C9628E1FC01C2
:1011100011922A95E9F724EB36E03DA72CA7FFA60C
:10112000EEA62EE030E039AB28AB23EF36E03DAB46
:101130002CABFFAAEEAA2EEB31E039AF28AF26E4A4
:1011400037E03DAF2CAFFFAEEEAE22E13AE722969C
:101150003FAF2EAF229763E00E943F06C95ADF4F90
:101160000FB6F894DEBF0FBECDBFDF91CF910F91C8
:10117000FF90EF9008954F925F926F927F928F92BF
:101180009F92AF92BF92CF92DF92EF92FF921F9306
:10119000CF93DF93182FEB010E94E200409054029E
:1011A00050905502609056027090570229E3420E0B
:1011B00020E3521E611C711CBC0180E090E02DE612
:1011C0003EE446EC51E40E94E20B49015A01D3018E
:1011D000C201880D991DAA1DBB1D809354029093D6
:1011E0005502A0935602B0935702BD018827992754
:1011F00023E230E040E050E00E94A10B262F6E0178
:101200008FEFC81AD80A33E2E32EF12CF60130E052
:10121000A22FB0E03117F1F08081082E000C990B5D
:1012200065E070E00E945C0BAF0141505109EA019A
:101230004881840F911D47FD9A953296A817B907EA
:1012400039F4CD010196B7010E948D0B282FDECF16
:101250003F5FE0CF822F65E00E946D0B282F892F22
:10126000922FDF91CF911F91FF90EF90DF90CF9061
:10127000BF90AF909F908F907F906F905F904F90B6
:1012800008950F93FC0181E080832183028383838F
:1012900064834583CF010F910895FC0191819830BB
:1012A00010F49F5F91830895282FFB01848195811D
:1012B000211105C0915097FF15C096E00895213087
:1012C00029F48F5F853074F080E00895223029F48E
:1012D0009F5F97303CF090E00895233019F48150DF
:1012E00087FD84E00895CF93DF93FC019381808193
:1012F000992319F19181891710F48F5F80832081E0
:10130000215099F0822F90E0EC01CC0FDD1FCE0F21
:10131000DF1F3A813C83DC011197AA0FBB1FAE0F80
:10132000BF1F15968C918D83EBCFEF01BF0182819A
:101330000E9454099D838C8304C0882311F081503E
:101340008083DF91CF9108950F931F93CF93DF9305
:101350008C01D62FC0E0F8018081C81770F4EC2F03
:10136000F0E03296EE0FFF1FE00FF11F6D2F80812E
:1013700091810E94D803CF5FEECFDF91CF911F9173
:101380000F910895FC018481861306C091E0858148
:10139000871390E0892F01C080E081700895DF926B
:1013A000EF92FF920F931F93CF93DF937C018B01FA
:1013B000FB01D080C1E0D0E0CD1578F4FE0132967B
:1013C000EE0FFF1FE00FF11F60817181C7010E94C6
:1013D000C2092196882381F301C080E0DF91CF917B
:1013E0001F910F91FF90EF90DF900895CF93CFE57D
:1013F000C80F0E945900882331F00E945B0080349E
:10140000C1F7CF9108958C2F0E9463000E94B90309
:10141000F0CF1F93CF93DF93D82F162F0E94590040
:10142000882341F00E945B00C1EAC80FCD1710F07D
:101430001C1718F40E94B903F1CF80E40E946300E6
:101440008C2FDF91CF911F910895282F892F65E070
:101450000E94530B820F0C94F60962E280E00E9416
:10146000090A65E00E946D0B282F892F922F08959D
:10147000BF92CF92DF92EF92FF920F931F93CF9381
:10148000DF930E94C80088EE93E00E942A0683E35F
:1014900091E00E94A90584E10E94990581E090E015
:1014A0000E949F0581E090E00E94A40588EE93E0F1
:1014B0000E94A4030E9455030E94750001E010E001
:1014C00022E0E22EF12C0E94890486ED91E00E9438
:1014D0008A05B12CC12CD12CC0E0D0E00E94B90308
:1014E0000E94AE050E94D80284E00E94A6028823D2
:1014F000C1F0C130D10529F4F0923702E0923602F2
:1015000004C010933702009336028AE70E946300FA
:101510008BEE91E00E948A05BB24B394CC24C39443
:10152000D12C0E945900882331F00E945B008A3739
:1015300011F4C1E0D0E0BB20A9F080913802909175
:1015400039020196893A26E192072CF490933902E8
:101550008093380207C010923902109238028AE74D
:101560000E946300C114D10409F4B8CF209721F47C
:10157000CC24C394D12CB2CF809136020E942F0884
:10158000C82FD0E00E948904209719F480E092E0EF
:1015900007C0219719F487E092E002C08FE092E043
:1015A0000E948A05C0E5DDE20E94B9030E94AE05F3
:1015B0002197D1F70E94890485E192E00E948A0573
:1015C000CFE30E94B9030E94AE050E94D802809129
:1015D000360290913702019751F580E00E94A602F1
:1015E000882341F082E292E00E948A0589E70E9406
:1015F0006300C9E782E00E94A602882341F087E2E7
:1016000092E00E948A058EE60E946300CEE684E0A6
:101610000E94A6028823A9F2C93711F489E701C004
:101620008EE60E94630082E60E94630019C00E9459
:101630005900882331F20E945B00893731F482E23D
:1016400092E00E948A05C9E7BCCF8E3631F487E26A
:1016500092E00E948A05CEE6B4CF823609F0B1CF7F
:10166000C93709F430CF0E9489040E94AE058BE28D
:1016700092E00E948A05C8EAD6E10E94B9030E945E
:10168000AE052197D1F70E9489040E94AE0580E043
:1016900090E0DF91CF911F910F91FF90EF90DF903D
:1016A000CF90BF900895002480FD060E660F11F0C4
:1016B0008695D1F7802D08950024552704C0080E83
:1016C000591F880F991F009729F076956795B8F3F1
:1016D0007105B9F7802D952F0895991B79E004C005
:1016E000991F961708F0961B881F7A95C9F7809561
:1016F0000895AA1BBB1B51E107C0AA1FBB1FA61759
:10170000B70710F0A61BB70B881F991F5A95A9F7AA
:1017100080959095BC01CD01089597FB072E16F496
:10172000009407D077FD09D00E94790B07FC05D003
:101730003EF4909581959F4F0895709561957F4FE8
:101740000895A1E21A2EAA1BBB1BFD010DC0AA1F02
:10175000BB1FEE1FFF1FA217B307E407F50720F01A
:10176000A21BB30BE40BF50B661F771F881F991F95
:101770001A9469F760957095809590959B01AC01DE
:10178000BD01CF010895052E97FB1EF400940E9421
:10179000DA0B57FD07D00E94A10B07FC03D04EF4D3
:1017A0000C94DA0B50954095309521953F4F4F4F53
:1017B0005F4F089590958095709561957F4F8F4FFD
:1017C0009F4F089568940013E894A0E0B0E0EBEE1A
:1017D000FBE00C940A0CEFEFE7F959016A015E2374
:1017E000550FEE08FE2C87019B01AC019E23990F3B
:1017F000660B762FCB010E94390CCDB7DEB7EAE03D
:101800000C94260C2F923F924F925F926F927F9290
:101810008F929F92AF92BF92CF92DF92EF92FF9200
:101820000F931F93CF93DF93CDB7DEB7CA1BDB0BAC
:101830000FB6F894DEBF0FBECDBF09942A88398851
:1018400048885F846E847D848C849B84AA84B98458
:10185000C884DF80EE80FD800C811B81AA81B98164
:10186000CE0FD11D0FB6F894DEBF0FBECDBFED0178
:101870000895DF93CF939F92A0E49A2E0024D00185
:10188000E001F00116950795F794E794D794C79473
:10189000B794A79448F41068A20FB31FC41FD51FB4
:1018A000E61FF71F081E191E220F331F441F551F66
:1018B000661F771F881F991F9A9421F79D01AE011B
:1018C000BF01C00111249F90CF91DF910895FB01CA
:1018D000DC014150504048F001900D920020C9F7C2
:1018E00001C01D9241505040E0F70895F894FFCF99
:1018F00001000000000000140000000000000000D3
:1019000000000000000000000000000000000000D7
:1019100000000000000000000000000000000000C7
:10192000000001010305203B0200009220EB737DC3
:101930005FDE3DA552EA7A14004A222229BA2ED04F
:10194000050014C0010020A4126A2B9A74A372A38C
:1019500038ED498F38CE2AA712AA2AAE49100410B2
:10196000145444380E11152A250000EA5BEB3A4F57
:10197000726B3BCF73CF134F7AED5B9774247B5D13
:10198000564972FD5B6F5B6F7BEF136F7FEF57CE36
:101990003897246D7B6D2BED5FAD5AAD24A7720097
:1019A0000306080A03400080031003800320004060
:1019B0000020001000080004000200010380034022
:1019C0000320008003102020434C49434B20544FF8
:1019D000205245414459205550210020205741496B
:1019E00054494E47204F4E20504C415945523200E9
:1019F000204C4F534552002057494E4E455200202F
:101A0000445241570020504C415920414741494ED2
:101A10003F002059455300204E4F0020474F4F4470
:061A2000425945210000BF
:00000001FF
