:100000000C943A000C9457000C9457000C94570031
:100010000C9457000C9457000C9457000C94570004
:100020000C9457000C9457000C9457000C945700F4
:100030000C9457000C9457000C9457000C945700E4
:100040000C9457000C9457000C9457000C945700D4
:100050000C9457000C9457000C9457000C945700C4
:100060000C9457000C9457000C9457000C945700B4
:100070000C94570011241FBECFEFD4E0DEBFCDBFDC
:1000800012E0A0E0B1E0EAE6F6E102C005900D92D0
:10009000A631B107D9F722E0A6E1B2E001C01D9276
:1000A000A333B207E1F70E945B090C94330B0C9465
:1000B00000000C9491010C94B2010C9497010C94E3
:1000C0009D010C94A3010E94A3010E949D0188231D
:1000D000E1F38CE291E00197F1F70E949101811127
:1000E0000C945B0008950C94B901CF93DF9300D07A
:1000F0001F92CDB7DEB780ED90E09A83898388E0C8
:100100008B83509A589A0E9464018FE690E00E9477
:10011000FB0081E090E00E94530161E070E081E02B
:1001200090E00E943F010E942B01CE0101960E94A7
:1001300079010F900F900F90DF91CF910895CF9399
:10014000DF93DC01562FFB0160E070E0C1E0D0E0FE
:100150008E2F851B8417B8F49191BE01092E02C021
:10016000660F771F0A94E2F76F5F7F4F769567956A
:100170006A0F7B1F02C0769567959A95E2F76F3FED
:10018000710509F028F7F9016083DF91CF91089597
:10019000E1E6F0E080E880831082A89584B7877F4D
:1001A00084BFE0E6F0E0808188618083108208955A
:1001B0001092800084E0809381001092850010925C
:1001C0008400089580918400909185000895AC0189
:1001D00080918400909185009C01241B350B283E62
:1001E0003340B0F708952091840030918500820F4C
:1001F000931F0C94E700CF93DF931F92CDB7DEB728
:100200009E012F5F3F4F45E06EEA71E00E949F0024
:1002100091E0980F909300019981915097BD18BC7F
:1002200095B5977039F095B5209100012770987FAA
:10023000922B95BD298130E0E82FF0E0E255FE4F8A
:10024000C901008002C0880F991F0A94E2F70F903D
:10025000DF91CF91089585B3897F85BB85B5909156
:1002600000019770887F892B85BD089585B5887FAB
:1002700085BD089585B382FB882780F9089500978E
:1002800019F0019741F0089584B56295660F660FE5
:10029000607C8F7305C084B563706295607F8F7CCE
:1002A000682B64BD0895009741F0019759F484B517
:1002B0008E7F84BD84B5826002C084B58C7F84BD8E
:1002C00081E0089580E0089514BC15BC16BC18BCEC
:1002D00084B58E7F84BD84B5826084BD81E008953D
:1002E0009C01215031093093CD0081508093CC0086
:1002F0000895CF93DF93EC01888199810E9470016A
:100300008A819BEF980F943008F088E098E19093F1
:10031000C9008550880F8093CA0081E0DF91CF919A
:1003200008958091C800881F8827881F08958091AC
:10033000C80085FB882780F908958091C80086FB56
:10034000882780F90895CF93C82F0E9497018823AA
:10035000E1F39091C80090649093C800C093CE00E0
:10036000CF9108958091C80087FFFCCF8091CE0087
:100370000895CF93DF93EC018991882319F00E94AF
:10038000A301FACFDF91CF910895853098F46730BB
:1003900088F421E030E001C0220F6A95EAF7E82FE7
:1003A000F0E0E75EFD4F922F909580818923411107
:1003B000822B80830895853080F4673070F4E82FB5
:1003C000F0E0E75EFD4F81E090E001C0880F6A95A4
:1003D000EAF79081982381E009F480E00895609124
:1003E0001802E62FF0E0E75EFD4F80810E943D029B
:1003F000809118028F5F853018F480931802089559
:10040000109218020895E9E1F2E01082118212823E
:100410001382148208950E941B020C9403029C0113
:10042000FC01FF2784A1832B84A395A1892F832B13
:1004300085A381E00895CF93DF93CDEBD1E089913F
:1004400099910E940F0281E0CB3CD807C1F783E06D
:1004500090E40E940F0280E090E80E940F0283E087
:1004600090E10E940F0283E090E80E940F0283E077
:1004700090E2DF91CF910C940F02E0911E02F0E028
:10048000EE0FFF1FED54FE4F20813181F901FF2750
:1004900095A1932B95A3EDEBF1E097E020813181BD
:1004A000D901BB2795962C91959780FF03C0309575
:1004B000232301C0232B95962C9386959150329639
:1004C0009111ECCFE62FF0E0EE0FFF1FED54FE4F41
:1004D00080819181FC01FF2785A19095892385A3C7
:1004E00060931E0208956230710511F168F4613065
:1004F000710551F5FC01FF2724A1892F8095922FCA
:10050000982394A395A112C06330710541F0643023
:100510007105D1F4FC01FF2784A1892B0FC0FC01D8
:10052000FF2784A1892B84A385A19095892309C0E5
:10053000FC01FF2724A1892F8095822384A385A114
:10054000892B85A381E0089580E00895E82FF0E0ED
:10055000EE0FFF1FE15EFD4F8081882321F0918126
:1005600081E0892702C080E090E081700895E82F43
:10057000F0E0EE0FFF1FE15EFD4F8081811102C0B0
:10058000818102C080E090E081700895E82FF0E062
:10059000EE0FFF1FE15EFD4F80810895E82FF0E030
:1005A000EE0FFF1FE15EFD4F908181E089270895E6
:1005B0006F927F928F929F92AF92BF92CF92DF9273
:1005C000EF92FF920F931F93CF93DF9300D0CDB79D
:1005D000DEB72FE1622E22E0722E3BECC32E31E01B
:1005E000D32E812C46E0942EF30180818183F60185
:1005F000019111916F015801BB24F50184A1E12EF5
:10060000FF2425A130E02E213F2141E0232B09F4D6
:1006100040E090E08E219F21892B29F0411108C0F4
:1006200023E030E00AC0411106C021E030E005C0FF
:1006300024E030E002C022E030E064E070E0C80175
:1006400029833A830E94730262E070E0C8010E942D
:100650007302892D8A95F1F7F50183A190E0E822D4
:10066000F92281E029813A81EF2809F080E0F30145
:100670008083B901C8010E9473028394F2E06F0E77
:10068000711C85E08812B0CF0F900F90DF91CF9151
:100690001F910F91FF90EF90DF90CF90BF90AF90A0
:1006A0009F908F907F906F9008950895009789F0A4
:1006B000FC012381621B67FD09C0062E000C770B2D
:1006C000248130E081E0621773070CF080E08170D4
:1006D000089580E00895CF93DF93FC01A62F822F29
:1006E000309771F16181461758F59281291740F5CD
:1006F0009381A91BA7FD24C00A2E000CBB0BC4814B
:10070000D0E0AC17BD07E4F40E94100A480F6581E1
:1007100070E0CD010E94190A0696242F2695269591
:100720002695E80FF91FE20FF11D9081892F90E0C7
:10073000477002C0959587954A95E2F7817001C090
:1007400080E0DF91CF910895CF93DF93EC010E9479
:10075000D8009E0140E050E062E17AE780E090E05E
:100760000E94800A30932C0220932B02DF91CF91BC
:1007700008958091290290912A020E94E700209119
:10078000290230912A0280912B0290912C02820F33
:10079000931F90932A0280932902089541E06111EA
:1007A00001C040E0692F0C94C501692F0C94DB0156
:1007B00041E0611101C040E0692F0C94C5014F92E6
:1007C0005F926F927F928F929F92AF92BF92CF92E1
:1007D000DF92EF92FF920F931F93CF93DF931F92BD
:1007E000CDB7DEB7862E942E5C01E62EF72E262F8F
:1007F000660F330B281B310987FD3395072F072E12
:10080000000C110B091B110997FD139537FF03C04D
:1008100077247A9402C07724739417FF03C0662468
:100820006A9402C066246394290137FF03C051947F
:100830004194510817FF03C0119501951109401605
:100840005106A4F06201D594C794F92EA81421F1A1
:10085000692D8A2D9F2D0E94D803C01AD10AD7FE78
:1008600003C0C40CD51CF60CA70CF0CF6801D594BE
:10087000C794E82EB71681F0692D8E2D9B2D7983B4
:100880000E94D803C418D5087981D7FE03C0C00ED2
:10089000D11EE70CB60CEECF692DC7010F90DF918A
:1008A000CF911F910F91FF90EF90DF90CF90BF906D
:1008B000AF909F908F907F906F905F904F900C942F
:1008C000D803FF920F931F93CF93DF93D82FF92E66
:1008D000162FC72F042F792F0E94DF03402F6D2F73
:1008E0007C2F8D2F9F2D0E94DF03402F612F7C2FA7
:1008F000812F9F2D0E94DF03402F612F7C2F8D2F92
:100900009C2F0E94DF03DF91CF911F910F91FF90E9
:1009100008950E940302E1E0F1E0118A148608952F
:10092000DF92EF92FF920F931F93CF93DF93D82E16
:100930007B01162F0F2D8091030190910401C0E0DF
:100940000197A1F50F2D0C1BE0910901F0910A010F
:100950008181C817C0F4D0E08091090190910A010B
:10096000FC012281D21768F42D2F4C2F6D2D0E948F
:100970006B03682F8D2F8E0D902F0E94D803DF5FA1
:10098000EBCFCF5FDFCFC0E0E0910901F0910A012A
:100990008281C81740F460E08C2F8E0D902F0E944A
:1009A000D803CF5FF1CF015031C0CF5F1C2F1E0D98
:1009B000E0910901F0910A018181C817B0F4D0E0FB
:1009C0008091090190910A01FC012281D21768F7F8
:1009D0002D2F4C2F6D2D0E946B03682F812F9D2F83
:1009E0009F0D0E94D803DF5FEBCFC0E0E0910901CB
:1009F000F0910A018281C81740F460E0812F9C2F9A
:100A00009F0D0E94D803CF5FF1CF1F5F812F902FE2
:100A1000DF91CF911F910F91FF90EF90DF9008959C
:100A20001F93CF93DF93182FEC018C2F811B99918B
:100A3000992351F0892F0E949004BC018C2F811BB7
:100A4000653014F477FFF1CFDF91CF911F910895B6
:100A50000F931F93CF93DF93EC019B0110920D0135
:100A600040930E01109211010091090110910A01A9
:100A70000115110509F449C0F80181816091070150
:100A80007091080190E00E94190ABC0180910B014D
:100A900090910C010E94360ACB016AE070E00E943E
:100AA000190A9093100180930F013093060120934F
:100AB000050140E250E0BE0182E191E00E94240B7A
:100AC00080910101909102010197F9F4FE010190DA
:100AD0000020E9F7CF010197F8019181692F70E0BB
:100AE0006F5F7F4F8C1B0E94100A81502091030181
:100AF000309104012130310511F095E001C097E0FB
:100B0000981718F48EEF80931101DF91CF911F9108
:100B10000F91089520910301309104012130310596
:100B200011F070E001C076E04FEF60E00E94280510
:100B3000089590E0909308018093070108959093A1
:100B400002018093010108959093040180930301B1
:100B5000089590930A0180930901089580912D02D0
:100B600090912E02019690932E0280932D02209157
:100B70000F01309110018217930708F469C0109299
:100B80002E0210922D02E0910D01F0E0EF5FFE4F7A
:100B9000818981110AC080910E01823008F458C009
:100BA000815080930E0110920D0180910D0190E013
:100BB000FC01EF5FFE4F2189222309F449C04091D7
:100BC000010150910201209111014115510521F0BF
:100BD0004130510599F024C0211122C060910501D6
:100BE000709106018E5E9E4F0E94100590E0019765
:100BF00090910D01890F80930D0112C06091050144
:100C0000709106014091030150910401413051055A
:100C100011F4720F01C0621B8E5E9E4F0E94100580
:100C2000809111018F5F80931101082E000C990BA8
:100C3000E0910901F0910A01218130E0281739077C
:100C40003CF41092110180910D018F5F80930D0192
:100C50000C94EF01CF93DF93C1E0D1E09B878A87AB
:100C60000E940B0284E190E09F838E83DF91CF91FD
:100C70000C948904182F092FF62E0E94D8000E9488
:100C8000E200C12FD02F8E819F810E94E700E88172
:100C9000F9818A819B8109958E819F812C813D817B
:100CA000280F391F3F832E830E94E200E12FF02F8F
:100CB000AFEFBFEF40E04F1531F326813781BC0124
:100CC000621B730B9B012F3F7FE7370710F4EF0187
:100CD000DACF3195219531092A173B0710F4D90154
:100CE000EF014F5F3896E7CF1F93CF93DF93EC016F
:100CF000162F8AA5861304C08A810E94460903C064
:100D00000E9448098E8B8AA5811304C089810E94A4
:100D1000460903C00E9448098D8B8AA5811306C02D
:100D20008B81DF91CF911F910C9446090E94480955
:100D300091E0811101C090E09F8BDF91CF911F91D5
:100D40000895CF93DF93EC010E948904CE010E94A5
:100D5000F708CE0144960E94F7088B81882341F062
:100D60008F89882329F061E088A599A50E94D8037E
:100D7000DF91CF910C94AE050F931F93CF93DF9328
:100D8000EC0161E00E94740662E0CE010E947406EC
:100D90008B81882309F446C08F89882309F445C0D4
:100DA000CE010E94C6088E010C5E1F4FC8010E9432
:100DB000C608BE01CE010E941F09882311F01B82C4
:100DC0000DC0B801CE010E941F098111F8CF688DB6
:100DD000798DCE010E9412098111F1CF68A579A504
:100DE000CE010E941209882389F0CE010E94A0083A
:100DF000BE016C5F7F4F88810E940E0899A788A76B
:100E0000DF91CF911F910F910C944A0968A579A5A4
:100E1000C8010E941209882399F00E94520999A7DB
:100E200088A70EC0CE010E94C6088F89811108C014
:100E3000CE014496DF91CF911F910F910C94C6087B
:100E4000DF91CF911F910F910895CF93DF93FB0115
:100E50009081913079F0EB010E94A7082E81281330
:100E600006C081E02F81291303C080E001C081E02A
:100E7000817001C081E0DF91CF910895CF93DF931E
:100E8000FC0123812223D9F1EC010E9489040E94F4
:100E9000AE050E94D80280E00E94A602882341F09D
:100EA000BE0180E00E942507882311F01A8227C026
:100EB00082E00E94A602882341F0BE0182E00E94E7
:100EC0002507882311F082E019C083E00E94A60262
:100ED000882341F0BE0183E00E942507882311F09A
:100EE00083E00CC081E00E94A602882341F0BE018D
:100EF00081E00E942507882311F081E08A83DF9139
:100F0000CF910895EF92FF920F93CF93DF93CDB7D8
:100F1000DEB7C755D1090FB6F894DEBF0FBECDBFFF
:100F20008BA79E012F5F3F4F79018130B9F400E01C
:100F300022E046E060E0CE018C5B9F4F0E94940867
:100F400084E1FE01EC5BFF4FD70101900D928A9581
:100F5000E1F702E022E040E064E016C002E022E0B7
:100F600040E064E0CE018C5B9F4F0E94940884E1D6
:100F7000FE01EC5BFF4FD70101900D928A95E1F7DE
:100F800000E022E046E060E0CE018C5B9F4F0E94D3
:100F9000940884E1FE01EC5BFF4FDE015596019061
:100FA0000D928A95E1F782E089A783E08AA7CE01B6
:100FB0008C9628E1FC0111922A95E9F721EA36E0A6
:100FC0003DA72CA7FFA6EEA626E130E039AB28AB63
:100FD0002EE337E03DAB2CABFFAAEEAA2EEB31E0BF
:100FE00039AF28AF2CEB36E03DAF2CAFFFAEEEAE05
:100FF00022E13AE722963FAF2EAF229763E00E94AC
:101000003A06C95ADF4F0FB6F894DEBF0FBECDBF08
:10101000DF91CF910F91FF90EF9008954F925F92E3
:101020006F927F928F929F92AF92BF92CF92DF92F8
:10103000EF92FF921F93CF93DF93182FEB010E9443
:10104000E20040902F025090300260903102709088
:10105000320229E3420E20E3521E611C711CBC01C6
:1010600080E090E02DE63EE446EC51E40E949F0AC9
:1010700049015A01D301C201880D991DAA1DBB1D4A
:1010800080932F0290933002A0933102B0933202EA
:10109000BD018827992723E230E040E050E00E941C
:1010A0005E0A262F6E018FEFC81AD80A33E2E32EAC
:1010B000F12CF60130E0A22FB0E03117F1F0808181
:1010C000082E000C990B65E070E00E94190AAF0130
:1010D00041505109EA014881840F911D47FD9A95BD
:1010E0003296A817B90739F4CD010196B7010E94CD
:1010F0004A0A282FDECF3F5FE0CF822F65E00E94B3
:101100002A0A282F892F922FDF91CF911F91FF90CC
:10111000EF90DF90CF90BF90AF909F908F907F9097
:101120006F905F904F9008950F93FC0181E0808352
:1011300021830283838364834583CF010F910895C4
:10114000FC019181983010F49F5F91830895282FBE
:10115000FB0184819581211105C0915097FF15C035
:1011600096E00895213029F48F5F853074F080E097
:101170000895223029F49F5F97303CF090E0089565
:10118000233019F4815087FD84E00895CF93DF93D5
:10119000FC0193818081992319F19181891710F4C1
:1011A0008F5F80832081215099F0822F90E0EC01A5
:1011B000CC0FDD1FCE0FDF1F3A813C83DC0111977E
:1011C000AA0FBB1FAE0FBF1F15968C918D83EBCF5F
:1011D000EF01BF0182810E94A7089D838C8304C018
:1011E000882311F081508083DF91CF9108950F9370
:1011F0001F93CF938C01C0E0F8018081C81770F471
:10120000EC2FF0E03296EE0FFF1FE00FF11F61E0D0
:10121000808191810E94D803CF5FEECFCF911F9143
:101220000F910895FC018481861306C091E08581A9
:10123000871390E0892F01C080E081700895DF92CC
:10124000EF92FF920F931F93CF93DF937C018B015B
:10125000FB01D080C1E0D0E0CD1578F4FE013296DC
:10126000EE0FFF1FE00FF11F60817181C7010E9427
:1012700012092196882381F301C080E0DF91CF918C
:101280001F910F91FF90EF90DF9008950C946300F1
:101290000C945B00282F892F65E00E94100A820FB2
:1012A0000C9463000E945B0065E00E942A0A282FCC
:1012B000892F922F0895EF92FF920F931F93CF9350
:1012C000DF930E94C80088EE93E00E942A0682E322
:1012D00091E00E94A90584E10E94990581E090E0D7
:1012E0000E949F0581E090E00E94A40588EE93E0B3
:1012F0000E94A4030E9455030E94750001E010E0C3
:1013000082E0E82EF12C0E94890485ED91E00E9494
:101310008A05C0E0D0E00E94B9030E94AE050E9499
:10132000D80284E00E94A6028823D1F0219729F4F4
:10133000F0921702E092160204C010931702009375
:1013400016028AE70E9463008AEE91E00E948A05F5
:101350000E9489048FEF91E00E948A05C1E01EC0BF
:101360000E9459008823B9F20E945B008A3799F6DF
:10137000C1E0D0E0D0CF82E00E94A602882329F00D
:1013800081E192E00E948A05C0E084E00E94A6020A
:10139000811115C00E945900811119C00E94B90322
:1013A0000E94AE050E94D80280E00E94A602882317
:1013B00011F38CE092E00E948A05C1E0DCCFCC23DF
:1013C00011F089E701C08EE60E946300E3CF0E941E
:1013D0005B00893731F00E945B008E3621F085E793
:1013E00003C089E701C08EE6CC23B9F031E020E0EC
:1013F000893709F030E0832F922F892B09F083CFB2
:101400000E9489040E94AE0580E090E0DF91CF91B8
:101410001F910F91FF90EF90089580E090E0EDCF45
:10142000002480FD060E660F11F08695D1F7802D01
:1014300008950024552704C0080E591F880F991FCE
:10144000009729F076956795B8F37105B9F7802D67
:10145000952F0895991B79E004C0991F961708F0FD
:10146000961B881F7A95C9F780950895AA1BBB1B08
:1014700051E107C0AA1FBB1FA617B70710F0A61B94
:10148000B70B881F991F5A95A9F780959095BC01B5
:10149000CD01089597FB072E16F4009407D077FD31
:1014A00009D00E94360A07FC05D03EF4909581953C
:1014B0009F4F0895709561957F4F0895A1E21A2E70
:1014C000AA1BBB1BFD010DC0AA1FBB1FEE1FFF1FE8
:1014D000A217B307E407F50720F0A21BB30BE40B38
:1014E000F50B661F771F881F991F1A9469F760957F
:1014F0007095809590959B01AC01BD01CF01089539
:10150000052E97FB1EF400940E94970A57FD07D002
:101510000E945E0A07FC03D04EF40C94970A509583
:101520004095309521953F4F4F4F5F4F08959095CF
:101530008095709561957F4F8F4F9F4F0895689468
:101540000013E894A0E0B0E0E8EAFAE00C94C70ADF
:10155000EFEFE7F959016A015E23550FEE08FE2C03
:1015600087019B01AC019E23990F660B762FCB015F
:101570000E94F60ACDB7DEB7EAE00C94E30A2F9298
:101580003F924F925F926F927F928F929F92AF9213
:10159000BF92CF92DF92EF92FF920F931F93CF9360
:1015A000DF93CDB7DEB7CA1BDB0B0FB6F894DEBFF7
:1015B0000FBECDBF09942A88398848885F846E841D
:1015C0007D848C849B84AA84B984C884DF80EE8067
:1015D000FD800C811B81AA81B981CE0FD11D0FB670
:1015E000F894DEBF0FBECDBFED010895DF93CF931A
:1015F0009F92A0E49A2E0024D001E001F0011695FC
:101600000795F794E794D794C794B794A79448F4B0
:101610001068A20FB31FC41FD51FE61FF71F081EB7
:10162000191E220F331F441F551F661F771F881F67
:10163000991F9A9421F79D01AE01BF01C0011124A9
:101640009F90CF91DF910895FB01DC014150504004
:1016500048F001900D920020C9F701C01D92415041
:0A1660005040E0F70895F894FFCF22
:10166A00010000000000001400000000000000005B
:10167A000000000000000000000000000000000060
:10168A000000000000000000000000000000000050
:10169A000000010305203B0200009220EB737D5FEE
:1016AA00DE3DA552EA7A14004A222229BA2ED00532
:1016BA000014C0010020A4126A2B9A74A372A338E2
:1016CA00ED498F38CE2AA712AA2AAE49100410145F
:1016DA005444380E11152A250000EA5BEB3A4F7282
:1016EA006B3BCF73CF134F7AED5B9774247B5D56B8
:1016FA004972FD5B6F5B6F7BEF136F7FEF57CE38DD
:10170A0097246D7B6D2BED5FAD5AAD24A772000354
:10171A0006080A03400080031003800320004000EB
:10172A0020001000080004000200010380034003A7
:10173A0020008003102020434C49434B20544F2063
:10174A0052454144592055502100202057414954BF
:10175A00494E47204F4E20504C41594552320020A5
:10176A00504C415920414741494E3F002059455369
:06177A0000204E4F0000AC
:00000001FF
