:100000000C943A000C9457000C9457000C94570031
:100010000C9457000C9457000C9457000C94570004
:100020000C9457000C9457000C9457000C945700F4
:100030000C9457000C9457000C9457000C945700E4
:100040000C9457000C9457000C9457000C945700D4
:100050000C9457000C9457000C9457000C945700C4
:100060000C9457000C9457000C9457000C945700B4
:100070000C94570011241FBECFEFD4E0DEBFCDBFDC
:1000800012E0A0E0B1E0EEEFF6E102C005900D92C3
:10009000A631B107D9F722E0A6E1B2E001C01D9276
:1000A000A533B207E1F70E949B090C947D0B0C94D9
:1000B00000000C9491010C94B2010C9497010C94E3
:1000C0009D010C94A3010E94A3010E949D0188231D
:1000D000E1F38CE291E00197F1F70E949101811127
:1000E0000C945B0008950C94B901CF93DF9300D07A
:1000F0001F92CDB7DEB780ED90E09A83898388E0C8
:100100008B83509A589A0E9464018FE690E00E9477
:10011000FB0081E090E00E94530161E070E081E02B
:1001200090E00E943F010E942B01CE0101960E94A7
:1001300079010F900F900F90DF91CF910895CF9399
:10014000DF93DC01562FFB0160E070E0C1E0D0E0FE
:100150008E2F851B8417B8F49191BE01092E02C021
:10016000660F771F0A94E2F76F5F7F4F769567956A
:100170006A0F7B1F02C0769567959A95E2F76F3FED
:10018000710509F028F7F9016083DF91CF91089597
:10019000E1E6F0E080E880831082A89584B7877F4D
:1001A00084BFE0E6F0E0808188618083108208955A
:1001B0001092800084E0809381001092850010925C
:1001C0008400089580918400909185000895AC0189
:1001D00080918400909185009C01241B350B283E62
:1001E0003340B0F708952091840030918500820F4C
:1001F000931F0C94E700CF93DF931F92CDB7DEB728
:100200009E012F5F3F4F45E06FEA71E00E949F0023
:1002100091E0980F909300019981915097BD18BC7F
:1002200095B5977039F095B5209100012770987FAA
:10023000922B95BD298130E0E82FF0E0E155FE4F8B
:10024000C901008002C0880F991F0A94E2F70F903D
:10025000DF91CF91089585B3897F85BB85B5909156
:1002600000019770887F892B85BD089585B5887FAB
:1002700085BD089585B382FB882780F9089500978E
:1002800019F0019741F0089584B56295660F660FE5
:10029000607C8F7305C084B563706295607F8F7CCE
:1002A000682B64BD0895009741F0019759F484B517
:1002B0008E7F84BD84B5826002C084B58C7F84BD8E
:1002C00081E0089580E0089514BC15BC16BC18BCEC
:1002D00084B58E7F84BD84B5826084BD81E008953D
:1002E0009C01215031093093CD0081508093CC0086
:1002F0000895CF93DF93EC01888199810E9470016A
:100300008A819BEF980F943008F088E098E19093F1
:10031000C9008550880F8093CA0081E0DF91CF919A
:1003200008958091C800881F8827881F08958091AC
:10033000C80085FB882780F908958091C80086FB56
:10034000882780F90895CF93C82F0E9497018823AA
:10035000E1F39091C80090649093C800C093CE00E0
:10036000CF9108958091C80087FFFCCF8091CE0087
:100370000895CF93DF93EC018991882319F00E94AF
:10038000A301FACFDF91CF910895853098F46730BB
:1003900088F421E030E001C0220F6A95EAF7E82FE7
:1003A000F0E0E75EFD4F922F909580818923411107
:1003B000822B80830895853080F4673070F4E82FB5
:1003C000F0E0E75EFD4F81E090E001C0880F6A95A4
:1003D000EAF79081982381E009F480E00895609124
:1003E0001802E62FF0E0E75EFD4F80810E943D029B
:1003F000809118028F5F853018F480931802089559
:10040000109218020895E9E1F2E01082118212823E
:100410001382148208950E941B020C9403029C0113
:10042000FC01FF2784A1832B84A395A1892F832B13
:1004300085A381E00895CF93DF93CEEBD1E089913E
:1004400099910E940F0281E0CC3CD807C1F783E06C
:1004500090E40E940F0280E090E80E940F0283E087
:1004600090E10E940F0283E090E80E940F0283E077
:1004700090E2DF91CF910C940F02E0911E02F0E028
:10048000EE0FFF1FEC54FE4F20813181F901FF2751
:1004900095A1932B95A3EEEBF1E097E020813181BC
:1004A000D901BB2795962C91959780FF03C0309575
:1004B000232301C0232B95962C9386959150329639
:1004C0009111ECCFE62FF0E0EE0FFF1FEC54FE4F42
:1004D00080819181FC01FF2785A19095892385A3C7
:1004E00060931E0208956230710511F168F4613065
:1004F000710551F5FC01FF2724A1892F8095922FCA
:10050000982394A395A112C06330710541F0643023
:100510007105D1F4FC01FF2784A1892B0FC0FC01D8
:10052000FF2784A1892B84A385A19095892309C0E5
:10053000FC01FF2724A1892F8095822384A385A114
:10054000892B85A381E0089580E00895E82FF0E0ED
:10055000EE0FFF1FE15EFD4F8081882321F0918126
:1005600081E0892702C080E090E081700895E82F43
:10057000F0E0EE0FFF1FE15EFD4F8081811102C0B0
:10058000818102C080E090E081700895E82FF0E062
:10059000EE0FFF1FE15EFD4F80810895E82FF0E030
:1005A000EE0FFF1FE15EFD4F908181E089270895E6
:1005B0006F927F928F929F92AF92BF92CF92DF9273
:1005C000EF92FF920F931F93CF93DF9300D0CDB79D
:1005D000DEB72FE1622E22E0722E3CECC32E31E01A
:1005E000D32E812C46E0942EF30180818183F60185
:1005F000019111916F015801BB24F50184A1E12EF5
:10060000FF2425A130E02E213F2141E0232B09F4D6
:1006100040E090E08E219F21892B29F0411108C0F4
:1006200023E030E00AC0411106C021E030E005C0FF
:1006300024E030E002C022E030E064E070E0C80175
:1006400029833A830E94730262E070E0C8010E942D
:100650007302892D8A95F1F7F50183A190E0E822D4
:10066000F92281E029813A81EF2809F080E0F30145
:100670008083B901C8010E9473028394F2E06F0E77
:10068000711C85E08812B0CF0F900F90DF91CF9151
:100690001F910F91FF90EF90DF90CF90BF90AF90A0
:1006A0009F908F907F906F9008950895009789F0A4
:1006B000FC012381621B67FD09C0062E000C770B2D
:1006C000248130E081E0621773070CF080E08170D4
:1006D000089580E00895CF93DF93FC01A62F822F29
:1006E000309771F16181461758F59281291740F5CD
:1006F0009381A91BA7FD24C00A2E000CBB0BC4814B
:10070000D0E0AC17BD07E4F40E945A0A480F658197
:1007100070E0CD010E94630A0696242F2695269547
:100720002695E80FF91FE20FF11D9081892F90E0C7
:10073000477002C0959587954A95E2F7817001C090
:1007400080E0DF91CF910895CF93DF93EC010E9479
:10075000D8009E0140E050E062E17AE780E090E05E
:100760000E94CA0A30932C0220932B02DF91CF9172
:1007700008958091290290912A020E94E700209119
:10078000290230912A0280912B0290912C02820F33
:10079000931F90932A0280932902089541E06111EA
:1007A00001C040E0692F0C94C501692F0C94DB0156
:1007B00041E0611101C040E0692F0C94C5014F92E6
:1007C0005F926F927F928F929F92AF92BF92CF92E1
:1007D000DF92EF92FF920F931F93CF93DF931F92BD
:1007E000CDB7DEB7862E942E5C01E62EF72E262F8F
:1007F000660F330B281B310987FD3395072F072E12
:10080000000C110B091B110997FD139537FF03C04D
:1008100077247A9402C07724739417FF03C0662468
:100820006A9402C066246394290137FF03C051947F
:100830004194510817FF03C0119501951109401605
:100840005106A4F06201D594C794F92EA81421F1A1
:10085000692D8A2D9F2D0E94D803C01AD10AD7FE78
:1008600003C0C40CD51CF60CA70CF0CF6801D594BE
:10087000C794E82EB71681F0692D8E2D9B2D7983B4
:100880000E94D803C418D5087981D7FE03C0C00ED2
:10089000D11EE70CB60CEECF692DC7010F90DF918A
:1008A000CF911F910F91FF90EF90DF90CF90BF906D
:1008B000AF909F908F907F906F905F904F900C942F
:1008C000D803FF920F931F93CF93DF93D82FF92E66
:1008D000162FC72F042F792F0E94DF03402F6D2F73
:1008E0007C2F8D2F9F2D0E94DF03402F612F7C2FA7
:1008F000812F9F2D0E94DF03402F612F7C2F8D2F92
:100900009C2F0E94DF03DF91CF911F910F91FF90E9
:1009100008950E940302E1E0F1E0118A148608952F
:10092000DF92EF92FF920F931F93CF93DF93D82E16
:100930007B01162F0F2D8091030190910401C0E0DF
:100940000197A1F50F2D0C1BE0910901F0910A010F
:100950008181C817C0F4D0E08091090190910A010B
:10096000FC012281D21768F42D2F4C2F6D2D0E948F
:100970006B03682F8D2F8E0D902F0E94D803DF5FA1
:10098000EBCFCF5FDFCFC0E0E0910901F0910A012A
:100990008281C81740F460E08C2F8E0D902F0E944A
:1009A000D803CF5FF1CF015031C0CF5F1C2F1E0D98
:1009B000E0910901F0910A018181C817B0F4D0E0FB
:1009C0008091090190910A01FC012281D21768F7F8
:1009D0002D2F4C2F6D2D0E946B03682F812F9D2F83
:1009E0009F0D0E94D803DF5FEBCFC0E0E0910901CB
:1009F000F0910A018281C81740F460E0812F9C2F9A
:100A00009F0D0E94D803CF5FF1CF1F5F812F902FE2
:100A1000DF91CF911F910F91FF90EF90DF9008959C
:100A20001F93CF93DF93182FEC018C2F811B99918B
:100A3000992351F0892F0E949004BC018C2F811BB7
:100A4000653014F477FFF1CFDF91CF911F910895B6
:100A50000F931F93CF93DF93EC019B0110920D0135
:100A600040930E01109211010091090110910A01A9
:100A70000115110509F449C0F80181816091070150
:100A80007091080190E00E94630ABC0180910B0103
:100A900090910C010E94800ACB016AE070E00E94F4
:100AA000630A9093100180930F0130930601209305
:100AB000050140E250E0BE0182E191E00E946E0B30
:100AC00080910101909102010197F9F4FE010190DA
:100AD0000020E9F7CF010197F8019181692F70E0BB
:100AE0006F5F7F4F8C1B0E945A0A81502091030137
:100AF000309104012130310511F095E001C097E0FB
:100B0000981718F48EEF80931101DF91CF911F9108
:100B10000F91089520910301309104012130310596
:100B200011F070E001C076E04FEF60E00E94280510
:100B3000089590E0909308018093070108959093A1
:100B400002018093010108959093040180930301B1
:100B5000089590930A0180930901089580912D02D0
:100B600090912E02019690932E0280932D02209157
:100B70000F01309110018217930708F469C0109299
:100B80002E0210922D02E0910D01F0E0EF5FFE4F7A
:100B9000818981110AC080910E01823008F458C009
:100BA000815080930E0110920D0180910D0190E013
:100BB000FC01EF5FFE4F2189222309F449C04091D7
:100BC000010150910201209111014115510521F0BF
:100BD0004130510599F024C0211122C060910501D6
:100BE000709106018E5E9E4F0E94100590E0019765
:100BF00090910D01890F80930D0112C06091050144
:100C0000709106014091030150910401413051055A
:100C100011F4720F01C0621B8E5E9E4F0E94100580
:100C2000809111018F5F80931101082E000C990BA8
:100C3000E0910901F0910A01218130E0281739077C
:100C40003CF41092110180910D018F5F80930D0192
:100C50000C94EF01CF93DF93C1E0D1E09B878A87AB
:100C60000E940B0284E190E09F838E83DF91CF91FD
:100C70000C9489041092320180932F020895FF9200
:100C80000F931F93CF93DF93182F092FF62E81E038
:100C9000809332010E94D8000E94E200C12FD02F21
:100CA00080913201882389F18E819F810E94E70023
:100CB000E881F9818A819B8109958E819F812C81B0
:100CC0003D81280F391F3F832E830E94E200E12FD0
:100CD000F02FAFEFBFEF40E04F1511F326813781C2
:100CE000BC01621B730B9B012F3F7FE7370758F056
:100CF0003195219531092A173B0710F4D901EF01ED
:100D00004F5F3896E9CFEF01CBCF80912F02DF9173
:100D1000CF911F910F91FF9008951F93CF93DF9371
:100D2000EC01162F8CA5861304C08A810E948609C7
:100D300003C00E9488098F8B8CA5811304C0898110
:100D40000E94860903C00E9488098E8B8CA581139E
:100D500006C08C81DF91CF911F910C9486090E946F
:100D6000880991E0811101C090E0998FDF91CF91C6
:100D70001F9108950F931F93CF93DF93EC0161E0D0
:100D80000E948D0662E0CE010E948D068C81882330
:100D900009F446C0898D882309F445C0CE010E941C
:100DA000F5088E010B5E1F4FC8010E94F508BE01B9
:100DB000CE010E946009882311F01C820DC0B80189
:100DC000CE010E9460098111F8CF6A8D7B8DCE0122
:100DD0000E9453098111F1CF6AA57BA5CE010E9423
:100DE0005309882389F0CE010E94CF08BE016B5FB2
:100DF0007F4F88810E943A089BA78AA7DF91CF91F5
:100E00001F910F910C948A096AA57BA5C8010E94C5
:100E100053098823E1F00E9492099BA78AA717C073
:100E2000CE010E94F508898D811104C0CE0145963E
:100E30000E94F5088881882319F08D89811107C0E7
:100E400082E0DF91CF911F910F910C943A06DF91D0
:100E5000CF911F910F910895CF93DF93EC010E94E2
:100E60008904CE010E942909CE0145960E942909D4
:100E70008C81882341F0898D882329F061E08AA53F
:100E80009BA50E94D803DF91CF910C94AE05CF9320
:100E9000DF93FB019081913079F0EB010E94D6083D
:100EA0002F81281306C081E02885291303C080E024
:100EB00001C081E0817001C081E0DF91CF91089590
:100EC000CF93DF93FC0124812223D9F1EC010E940E
:100ED00089040E94AE050E94D80280E00E94A6020A
:100EE000882341F0BE0180E00E944707882311F06B
:100EF0001A8227C082E00E94A602882341F0BE0128
:100F000082E00E944707882311F082E019C083E045
:100F10000E94A602882341F0BE0183E00E94470799
:100F2000882311F083E00CC081E00E94A602882390
:100F300041F0BE0181E00E944707882311F081E063
:100F40008A83DF91CF910895CF92DF92EF920F9332
:100F5000CF93DF93CDB7DEB7CA55D1090FB6F8945A
:100F6000DEBF0FBECDBF8DA79E012F5F3F4F690132
:100F7000EE24E3948130C9F400E022E046E060E032
:100F8000CE018A5B9F4F0E94C00885E1FE01EA5BAB
:100F9000FF4FD60101900D928A95E1F792E0E92E7C
:100FA00002E022E040E064E018C002E022E040E01D
:100FB00064E0CE018A5B9F4F0E94C00885E1FE017C
:100FC000EA5BFF4FD60101900D928A95E1F782E02E
:100FD000E82E00E022E046E060E0CE018A5B9F4F11
:100FE0000E94C00885E1FE01EA5BFF4FDE015696D4
:100FF00001900D928A95E1F782E08BA783E08CA7A0
:10100000CE018E9628E1FC0111922A95E9F72CE297
:1010100037E03FA72EA7D9AAC8AA2AE130E03BAB08
:101020002AAB20E637E03FAB2EABD9AEC8AE2EEBF5
:1010300031E03BAF2AAF2AEB36E03FAF2EAF22962E
:10104000DFAECEAE229722E13AE724963FAF2EAF35
:10105000249763E00E943F06C65ADF4F0FB6F8940C
:10106000DEBF0FBECDBFDF91CF910F91EF90DF902C
:10107000CF9008954F925F926F927F928F929F923E
:10108000AF92BF92CF92DF92EF92FF921F93CF93D6
:10109000DF93182FEB010E94E20040903002509045
:1010A0003102609032027090330229E3420E20E355
:1010B000521E611C711CBC0180E090E02DE63EE4F4
:1010C00046EC51E40E94E90A49015A01D301C201E8
:1010D000880D991DAA1DBB1D80933002909331028B
:1010E000A0933202B0933302BD018827992723E2EF
:1010F00030E040E050E00E94A80A262F6E018FEFFA
:10110000C81AD80A33E2E32EF12CF60130E0A22F00
:10111000B0E03117F1F08081082E000C990B65E0EA
:1011200070E00E94630AAF0141505109EA01488111
:10113000840F911D47FD9A953296A817B90739F487
:10114000CD010196B7010E94940A282FDECF3F5FA0
:10115000E0CF822F65E00E94740A282F892F922FFA
:10116000DF91CF911F91FF90EF90DF90CF90BF90D4
:10117000AF909F908F907F906F905F904F90089569
:10118000EF920F93FC0181E0808321830283E3824D
:10119000848365834683CF010F91EF900895FC010E
:1011A0009181983010F49F5F91830895282FFB015F
:1011B00085819681211105C0915097FF15C096E059
:1011C0000895213029F48F5F853074F080E0089510
:1011D000223029F49F5F97303CF090E0089523304F
:1011E00019F4815087FD84E00895CF93DF93FC01CB
:1011F00094818081992331F19181891710F48F5F57
:10120000808380818150B1F0A82FB0E0ED0121975B
:10121000CC0FDD1FCE0FDF1F9D81AA0FBB1FAE0FAE
:10122000BF1F15969C93159714969C91149716962C
:101230009C93E8CFEF01BF0182810E94D6089E8374
:101240008D8304C0882311F081508083DF91CF917A
:1012500008951F93CF93DF93EC01809134026B814B
:101260000E94740A992371F08091340290E00196F3
:1012700063E170E00E94940A80933402DF91CF9181
:101280001F91089510E08881181770F7E12FF0E0A2
:10129000EE0FFF1FEC0FFD1F61E0858196810E941C
:1012A000D8031F5FF0CFFC018581861306C091E053
:1012B0008681871390E0892F01C080E081700895B6
:1012C000CF92DF92FF920F931F93CF93DF936C0126
:1012D0008B01FB01F080C1E0D0E0CF1570F4FE017E
:1012E000EE0FFF1FE00FF11F65817681C6010E949E
:1012F00053092196882389F301C080E0DF91CF91C3
:101300001F910F91FF90DF90CF9008950C94630090
:101310000C945B00282F892F65E00E945A0A820FE7
:101320000C9463000E945B0065E00E94740A282F01
:10133000892F922F0895EF92FF920F931F93CF93CF
:10134000DF930E94C80088EE93E00E942A0683E3A0
:1013500091E00E94A90584E10E94990581E090E056
:101360000E949F0581E090E00E94A40588EE93E032
:101370000E94A4030E9455030E94750001E010E042
:1013800082E0E82EF12C0E94890486ED91E00E9413
:101390008A05C0E0D0E00E94B9030E94AE050E9419
:1013A000D80284E00E94A6028823D1F0219729F474
:1013B000F0921702E092160204C0109317020093F5
:1013C00016028AE70E9463008BEE91E00E948A0574
:1013D0000E94890480E092E00E948A05CFE32AC03F
:1013E0000E9459008823B9F20E945B008A3799F65F
:1013F000C1E0D0E0D0CF80E00E94A602882341F077
:101400008DE092E00E948A0589E70E946300C9E7A7
:1014100082E00E94A602882341F082E192E00E94CD
:101420008A058EE60E946300CEE684E00E94A60252
:1014300081110DC00E94B9030E94AE050E94D8021E
:101440008091160290911702019761F4D4CFC937A9
:1014500011F489E701C08EE60E94630082E60E94D3
:10146000630018C00E945900882321F30E945B008A
:10147000893731F48DE092E00E948A05C9E7DACF1E
:101480008E3631F482E192E00E948A05CEE6D2CF18
:10149000823681F6C93709F476CF0E9489040E940A
:1014A000AE0580E090E0DF91CF911F910F91FF900A
:1014B000EF900895002480FD060E660F11F08695CA
:1014C000D1F7802D08950024552704C0080E591F18
:1014D000880F991F009729F076956795B8F37105E5
:1014E000B9F7802D952F0895991B79E004C0991FB5
:1014F000961708F0961B881F7A95C9F7809508956E
:10150000AA1BBB1B51E107C0AA1FBB1FA617B70729
:1015100010F0A61BB70B881F991F5A95A9F7809545
:101520009095BC01CD01089597FB072E16F4009409
:1015300007D077FD09D00E94800A07FC05D03EF451
:10154000909581959F4F0895709561957F4F08956F
:10155000A1E21A2EAA1BBB1BFD010DC0AA1FBB1FB7
:10156000EE1FFF1FA217B307E407F50720F0A21B29
:10157000B30BE40BF50B661F771F881F991F1A9496
:1015800069F760957095809590959B01AC01BD01C0
:10159000CF010895052E97FB1EF400940E94E10AE6
:1015A00057FD07D00E94A80A07FC03D04EF40C9404
:1015B000E10A50954095309521953F4F4F4F5F4F31
:1015C000089590958095709561957F4F8F4F9F4FAF
:1015D000089568940013E894A0E0B0E0E2EFFAE028
:1015E0000C94110BEFEFE7F959016A015E23550FD7
:1015F000EE08FE2C87019B01AC019E23990F660B20
:10160000762FCB010E94400BCDB7DEB7EAE00C94F9
:101610002D0B2F923F924F925F926F927F928F92FB
:101620009F92AF92BF92CF92DF92EF92FF920F9371
:101630001F93CF93DF93CDB7DEB7CA1BDB0B0FB67B
:10164000F894DEBF0FBECDBF09942A883988488838
:101650005F846E847D848C849B84AA84B984C884CE
:10166000DF80EE80FD800C811B81AA81B981CE0FC5
:10167000D11D0FB6F894DEBF0FBECDBFED010895AA
:10168000DF93CF939F92A0E49A2E0024D001E00133
:10169000F00116950795F794E794D794C794B794FB
:1016A000A79448F41068A20FB31FC41FD51FE61FEC
:1016B000F71F081E191E220F331F441F551F661FD8
:1016C000771F881F991F9A9421F79D01AE01BF01D2
:1016D000C00111249F90CF91DF910895FB01DC019F
:1016E0004150504048F001900D920020C9F701C0D0
:0E16F0001D9241505040E0F70895F894FFCF4E
:1016FE0001000000000000140000000000000000C7
:10170E0000000000000000000000000000000000CB
:10171E0000000000000000000000000000000000BB
:10172E00000001010305203B0200009220EB737DB7
:10173E005FDE3DA552EA7A14004A222229BA2ED043
:10174E00050014C0010020A4126A2B9A74A372A380
:10175E0038ED498F38CE2AA712AA2AAE49100410A6
:10176E00145444380E11152A250000EA5BEB3A4F4B
:10177E00726B3BCF73CF134F7AED5B9774247B5D07
:10178E00564972FD5B6F5B6F7BEF136F7FEF57CE2A
:10179E003897246D7B6D2BED5FAD5AAD24A772008B
:1017AE000306080A03400080031003800320004054
:1017BE000020001000080004000200010380034016
:1017CE000320008003102020434C49434B20544FEC
:1017DE00205245414459205550210020205741495F
:1017EE0054494E47204F4E20504C415945523200DD
:1017FE0020504C415920414741494E3F0020594508
:06180E005300204E4F00C4
:00000001FF
