:100000000C943A000C9457000C9457000C94570031
:100010000C9457000C9457000C9457000C94570004
:100020000C9457000C9457000C9457000C945700F4
:100030000C9457000C9457000C9457000C945700E4
:100040000C9457000C9457000C9457000C945700D4
:100050000C9457000C9457000C9457000C945700C4
:100060000C9457000C9457000C9457000C945700B4
:100070000C94570011241FBECFEFD4E0DEBFCDBFDC
:1000800013E0A0E0B1E0ECE5F6E102C005900D92CE
:10009000A236B107D9F723E0A2E6B3E001C01D9272
:1000A000AF37B207E1F70E9443090C942C0B0C9474
:1000B00000000C9491010C94B2010C9497010C94E3
:1000C0009D010C94A3010E94A3010E949D0188231D
:1000D000E1F38CE291E00197F1F70E949101811127
:1000E0000C945B0008950C94B901CF93DF9300D07A
:1000F0001F92CDB7DEB780ED90E09A83898388E0C8
:100100008B83509A589A0E9464018FE690E00E9477
:10011000FB0081E090E00E94530161E070E081E02B
:1001200090E00E943F010E942B01CE0101960E94A7
:1001300079010F900F900F90DF91CF910895CF9399
:10014000DF93DC01562FFB0160E070E0C1E0D0E0FE
:100150008E2F851B8417B8F49191BE01092E02C021
:10016000660F771F0A94E2F76F5F7F4F769567956A
:100170006A0F7B1F02C0769567959A95E2F76F3FED
:10018000710509F028F7F9016083DF91CF91089597
:10019000E1E6F0E080E880831082A89584B7877F4D
:1001A00084BFE0E6F0E0808188618083108208955A
:1001B0001092800084E0809381001092850010925C
:1001C0008400089580918400909185000895AC0189
:1001D00080918400909185009C01241B350B283E62
:1001E0003340B0F708952091840030918500820F4C
:1001F000931F0C94E700CF93DF931F92CDB7DEB728
:100200009E012F5F3F4F45E063E173E00E949F0036
:1002100091E0980F909300019981915097BD18BC7F
:1002200095B5977039F095B5209100012770987FAA
:10023000922B95BD298130E0E82FF0E0ED5EFC4F78
:10024000C901008002C0880F991F0A94E2F70F903D
:10025000DF91CF91089585B3897F85BB85B5909156
:1002600000019770887F892B85BD089585B5887FAB
:1002700085BD089585B382FB882780F9089500978E
:1002800019F0019741F0089584B56295660F660FE5
:10029000607C8F7305C084B563706295607F8F7CCE
:1002A000682B64BD0895009741F0019759F484B517
:1002B0008E7F84BD84B5826002C084B58C7F84BD8E
:1002C00081E0089580E0089514BC15BC16BC18BCEC
:1002D00084B58E7F84BD84B5826084BD81E008953D
:1002E0009C01215031093093CD0081508093CC0086
:1002F0000895CF93DF93EC01888199810E9470016A
:100300008A819BEF980F943008F088E098E19093F1
:10031000C9008550880F8093CA0081E0DF91CF919A
:1003200008958091C800881F8827881F08958091AC
:10033000C80085FB882780F908958091C80086FB56
:10034000882780F90895CF93C82F0E9497018823AA
:10035000E1F39091C80090649093C800C093CE00E0
:10036000CF9108958091C80087FFFCCF8091CE0087
:100370000895CF93DF93EC018991882319F00E94AF
:10038000A301FACFDF91CF910895853098F46730BB
:1003900088F421E030E001C0220F6A95EAF7E82FE7
:1003A000F0E0EB59FC4F922F909580818923411109
:1003B000822B80830895853080F4673070F4E82FB5
:1003C000F0E0EB59FC4F81E090E001C0880F6A95A6
:1003D000EAF79081982381E009F480E00895609124
:1003E0006403E62FF0E0EB59FC4F80810E943D0250
:1003F000809164038F5F853018F4809364030895BF
:10040000109264030895E5E6F3E0108211821282EF
:100410001382148208950E941B020C9403029C0113
:10042000FC01FF2784A1832B84A395A1892F832B13
:1004300085A381E00895CF93DF93C2E2D3E0899151
:1004400099910E940F0283E0C033D807C1F783E07F
:1004500090E40E940F0280E090E80E940F0283E087
:1004600090E10E940F0283E090E80E940F0283E077
:1004700090E2DF91CF910C940F02E0916A03F0E0DB
:10048000EE0FFF1FE85EFC4F20813181F901FF274D
:1004900095A1932B95A3E2E2F3E097E020813181CF
:1004A000D901BB2795962C91959780FF03C0309575
:1004B000232301C0232B95962C9386959150329639
:1004C0009111ECCFE62FF0E0EE0FFF1FE85EFC4F3E
:1004D00080819181FC01FF2785A19095892385A3C7
:1004E00060936A0308956230710511F168F4613018
:1004F000710551F5FC01FF2724A1892F8095922FCA
:10050000982394A395A112C06330710541F0643023
:100510007105D1F4FC01FF2784A1892B0FC0FC01D8
:10052000FF2784A1892B84A385A19095892309C0E5
:10053000FC01FF2724A1892F8095822384A385A114
:10054000892B85A381E0089580E00895E82FF0E0ED
:10055000EE0FFF1FE559FC4F8081882321F0918128
:1005600081E0892702C080E090E081700895E82F43
:10057000F0E0EE0FFF1FE559FC4F8081811102C0B2
:10058000818102C080E090E081700895E82FF0E062
:10059000EE0FFF1FE559FC4F80810895E82FF0E032
:1005A000EE0FFF1FE559FC4F908181E089270895E8
:1005B0006F927F928F929F92AF92BF92CF92DF9273
:1005C000EF92FF920F931F93CF93DF9300D0CDB79D
:1005D000DEB72BE6622E23E0722E30E3C32E33E02B
:1005E000D32E812C46E0942EF30180818183F60185
:1005F000019111916F015801BB24F50184A1E12EF5
:10060000FF2425A130E02E213F2141E0232B09F4D6
:1006100040E090E08E219F21892B29F0411108C0F4
:1006200023E030E00AC0411106C021E030E005C0FF
:1006300024E030E002C022E030E064E070E0C80175
:1006400029833A830E94730262E070E0C8010E942D
:100650007302892D8A95F1F7F50183A190E0E822D4
:10066000F92281E029813A81EF2809F080E0F30145
:100670008083B901C8010E9473028394F2E06F0E77
:10068000711C85E08812B0CF0F900F90DF91CF9151
:100690001F910F91FF90EF90DF90CF90BF90AF90A0
:1006A0009F908F907F906F9008950895009789F0A4
:1006B000FC012381621B67FD09C0062E000C770B2D
:1006C000248130E081E0621773070CF080E08170D4
:1006D000089580E00895CF93DF93FC01A62F822F29
:1006E000309771F16181461758F59281291740F5CD
:1006F0009381A91BA7FD24C00A2E000CBB0BC4814B
:10070000D0E0AC17BD07E4F40E94090A480F6581E8
:1007100070E0CD010E94120A0696242F2695269598
:100720002695E80FF91FE20FF11D9081892F90E0C7
:10073000477002C0959587954A95E2F7817001C090
:1007400080E0DF91CF910895CF93DF93EC010E9479
:10075000D8009E0140E050E062E17AE780E090E05E
:100760000E94790A3093780320937703DF91CF9129
:10077000089580917503909176030E94E70020917F
:100780007503309176038091770390917803820FFF
:10079000931F9093760380937503089541E0611150
:1007A00001C040E0692F0C94C501692F0C94DB0156
:1007B00041E0611101C040E0692F0C94C5014F92E6
:1007C0005F926F927F928F929F92AF92BF92CF92E1
:1007D000DF92EF92FF920F931F93CF93DF931F92BD
:1007E000CDB7DEB7862E942E5C01E62EF72E262F8F
:1007F000660F330B281B310987FD3395072F072E12
:10080000000C110B091B110997FD139537FF03C04D
:1008100077247A9402C07724739417FF03C0662468
:100820006A9402C066246394290137FF03C051947F
:100830004194510817FF03C0119501951109401605
:100840005106A4F06201D594C794F92EA81421F1A1
:10085000692D8A2D9F2D0E94D803C01AD10AD7FE78
:1008600003C0C40CD51CF60CA70CF0CF6801D594BE
:10087000C794E82EB71681F0692D8E2D9B2D7983B4
:100880000E94D803C418D5087981D7FE03C0C00ED2
:10089000D11EE70CB60CEECF692DC7010F90DF918A
:1008A000CF911F910F91FF90EF90DF90CF90BF906D
:1008B000AF909F908F907F906F905F904F900C942F
:1008C000D803FF920F931F93CF93DF93D82FF92E66
:1008D000162FC72F042F792F0E94DF03402F6D2F73
:1008E0007C2F8D2F9F2D0E94DF03402F612F7C2FA7
:1008F000812F9F2D0E94DF03402F612F7C2F8D2F92
:100900009C2F0E94DF03DF91CF911F910F91FF90E9
:1009100008950E940302E1E0F1E0118A148608952F
:10092000DF92EF92FF920F931F93CF93DF93D82E16
:100930007B01162F0F2D8091030190910401C0E0DF
:100940000197A1F50F2D0C1BE0910901F0910A010F
:100950008181C817C0F4D0E08091090190910A010B
:10096000FC012281D21768F42D2F4C2F6D2D0E948F
:100970006B03682F8D2F8E0D902F0E94D803DF5FA1
:10098000EBCFCF5FDFCFC0E0E0910901F0910A012A
:100990008281C81740F460E08C2F8E0D902F0E944A
:1009A000D803CF5FF1CF015031C0CF5F1C2F1E0D98
:1009B000E0910901F0910A018181C817B0F4D0E0FB
:1009C0008091090190910A01FC012281D21768F7F8
:1009D0002D2F4C2F6D2D0E946B03682F812F9D2F83
:1009E0009F0D0E94D803DF5FEBCFC0E0E0910901CB
:1009F000F0910A018281C81740F460E0812F9C2F9A
:100A00009F0D0E94D803CF5FF1CF1F5F812F902FE2
:100A1000DF91CF911F910F91FF90EF90DF9008959C
:100A20001F93CF93DF93182FEC018C2F811B99918B
:100A3000992351F0892F0E949004BC018C2F811BB7
:100A4000653014F477FFF1CFDF91CF911F910895B6
:100A50000F931F93CF93DF93EC019B0110920D0135
:100A600040930E01109211010091090110910A01A9
:100A70000115110509F449C0F80181816091070150
:100A80007091080190E00E94120ABC0180910B0154
:100A900090910C010E942F0ACB016AE070E00E9445
:100AA000120A9093100180930F0130930601209356
:100AB000050140E250E0BE0182E191E00E941D0B81
:100AC00080910101909102010197F9F4FE010190DA
:100AD0000020E9F7CF010197F8019181692F70E0BB
:100AE0006F5F7F4F8C1B0E94090A81502091030188
:100AF000309104012130310511F095E001C097E0FB
:100B0000981718F48EEF80931101DF91CF911F9108
:100B10000F91089520910301309104012130310596
:100B200011F070E001C076E04FEF60E00E94280510
:100B3000089590E0909308018093070108959093A1
:100B400002018093010108959093040180930301B1
:100B5000089590930A018093090108958091790383
:100B600090917A03019690937A0380937903209170
:100B70000F01309110018217930708F469C0109299
:100B80007A0310927903E0910D01F0E0EF5FFE4FE0
:100B9000818981110AC080910E01823008F458C009
:100BA000815080930E0110920D0180910D0190E013
:100BB000FC01EF5FFE4F2189222309F449C04091D7
:100BC000010150910201209111014115510521F0BF
:100BD0004130510599F024C0211122C060910501D6
:100BE000709106018E5E9E4F0E94100590E0019765
:100BF00090910D01890F80930D0112C06091050144
:100C0000709106014091030150910401413051055A
:100C100011F4720F01C0621B8E5E9E4F0E94100580
:100C2000809111018F5F80931101082E000C990BA8
:100C3000E0910901F0910A01218130E0281739077C
:100C40003CF41092110180910D018F5F80930D0192
:100C50000C94EF01CF93DF93C1E0D1E09B878A87AB
:100C60000E940B0284E190E09F838E83DF91CF91FD
:100C70000C948904182F092FF62E0E94D8000E9488
:100C8000E200C12FD02F8E819F810E94E700E88172
:100C9000F9818A819B8109958E819F812C813D817B
:100CA000280F391F3F832E830E94E200E12FF02F8F
:100CB000AFEFBFEF40E04F1531F326813781BC0124
:100CC000621B730B9B012F3F7FE7370710F4EF0187
:100CD000DACF3195219531092A173B0710F4D90154
:100CE000EF014F5F3896E7CFCF92DF92EF92FF92FE
:100CF0000F931F93CF93DF93EC01D62E88A5861315
:100D000004C088810E942E0903C00E9430098B8B89
:100D100088A58D1102C0C88001C0CB8800E010E01A
:100D20000C15E8F488A58D110AC0F801EE0FFF1F1D
:100D3000EC0FFD1F838194810E9432090DC0780160
:100D40008BE0E80EF11CEE0CFF1CEC0EFD1E0E9469
:100D50003A09F701918380830F5F1F4FE1CFDF9145
:100D6000CF911F910F91FF90EF90DF90CF9008955A
:100D7000CF93DF93EC0188A5813039F48A810E94FA
:100D80002E090E9430098D8B06C00E9430098D8B80
:100D90008A810E942E0989A5882341F0CE010E94F4
:100DA000BA08CE0143960E94BA0805C088818823FC
:100DB00021F181508883BE01CE010E940809811172
:100DC00019A66EA17FA1CE010E94FB08882359F0CD
:100DD000CE010E949408BE016D5F7F4F88810E9402
:100DE00003089FA38EA361E0CE010E94740662E017
:100DF000CE01DF91CF910C947406DF91CF910895CD
:100E0000CF93DF93EC010E948904CE010E94E10898
:100E1000CE0143960E94E10889A5882329F061E06C
:100E20008EA19FA10E94D803DF91CF910C94AE05B3
:100E3000CF93DF93FB019081913079F0EB010E9419
:100E40009B082D81281306C081E02E81291303C041
:100E500080E001C081E0817001C081E0DF91CF912D
:100E60000895CF93DF93FC0121A52223D9F1EC0152
:100E70000E9489040E94AE050E94D80280E00E9470
:100E8000A602882341F0BE0180E00E941807882353
:100E900011F01A8227C082E00E94A602882341F046
:100EA000BE0182E00E941807882311F082E019C079
:100EB00083E00E94A602882341F0BE0183E00E94E5
:100EC0001807882311F083E00CC081E00E94A6027D
:100ED000882341F0BE0181E00E941807882311F0A9
:100EE00081E08A83DF91CF910895EF92FF920F9373
:100EF000CF93DF93CDB7DEB7C555D1090FB6F894C0
:100F0000DEBF0FBECDBF89A79E012F5F3F4F790186
:100F10008130B9F400E022E046E060E0CE018D5B74
:100F20009F4F0E94890883E1FE01ED5BFF4FD701CF
:100F300001900D928A95E1F702E022E040E064E042
:100F400016C002E022E040E064E0CE018D5B9F4FDE
:100F50000E94890883E1FE01ED5BFF4FD7010190FC
:100F60000D928A95E1F700E022E046E060E0CE01D4
:100F70008D5B9F4F0E94890883E1FE01ED5BFF4F6F
:100F8000DE01549601900D928A95E1F782E08FA3DD
:100F900083E088A781E08AA7CE018B9628E1FC0137
:100FA00011922A95E9F720E037E03CA72BA7FEA68F
:100FB000EDA626E130E038AB2FA721E337E03CABCC
:100FC0002BABFEAAEDAA2EEB31E038AF2FAB28EB0E
:100FD00036E03CAF2BAFFEAEEDAE2AE638E121960F
:100FE0003FAF2EAF219763E00E943A06CB5ADF4F06
:100FF0000FB6F894DEBF0FBECDBFDF91CF910F913A
:10100000FF90EF9008954F925F926F927F928F9230
:101010009F92AF92BF92CF92DF92EF92FF921F9377
:10102000CF93DF93182FEB010E94E20040907B03E7
:1010300050907C0360907D0370907E0329E3420E04
:1010400020E3521E611C711CBC0180E090E02DE683
:101050003EE446EC51E40E94980A49015A01D3014A
:10106000C201880D991DAA1DBB1D80937B0390931F
:101070007C03A0937D03B0937E03BD01882799274D
:1010800023E230E040E050E00E94570A262F6E0134
:101090008FEFC81AD80A33E2E32EF12CF60130E0C4
:1010A000A22FB0E03117F1F08081082E000C990BCF
:1010B00065E070E00E94120AAF0141505109EA0157
:1010C0004881840F911D47FD9A953296A817B9075C
:1010D00039F4CD010196B7010E94430A282FDECFD3
:1010E0003F5FE0CF822F65E00E94230A282F892FDF
:1010F000922FDF91CF911F91FF90EF90DF90CF90D3
:10110000BF90AF909F908F907F906F905F904F9027
:1011100008950F93FC0181E0808321830283638320
:101120004483CF010F910895FC019181983010F410
:101130009F5F91830895282FFB0183819481211162
:1011400005C0915097FF15C096E00895213029F40D
:101150008F5F853074F080E00895223029F49F5F1E
:1011600097303CF090E00895233019F4815087FDCA
:1011700084E00895CF93DF93EC01888199818917EA
:1011800010F48F5F88838881815091F0E82FF0E020
:10119000DF011197AA0FBB1FAC0FBD1F13969C91C7
:1011A000EE0FFF1FEC0FFD1F938392819483ECCF12
:1011B000BE018A810E949B089C838B83DF91CF9123
:1011C00008950F931F93CF938C01C0E0F8018081A5
:1011D000C81768F4EC2FF0E0EE0FFF1FE00FF11FCF
:1011E00061E0838194810E94D803CF5FEFCFCF91DC
:1011F0001F910F910895FC018381861306C091E031
:101200008481871390E0892F01C080E08170089568
:10121000CF92DF92FF920F931F93CF93DF936C01D6
:101220008B01FB01F080C1E0D0E0CF1570F4FE012E
:10123000EE0FFF1FE00FF11F63817481C6010E9452
:10124000FB082196882389F301C080E0DF91CF91CC
:101250001F910F91FF90DF90CF9008950C94630041
:101260000C945B00282F892F65E00E94090A820FE9
:101270000C9463000E945B0065E00E94230A282F03
:10128000892F922F0895CF92DF92EF92FF920F93C2
:101290001F93CF93DF930E94C80088EE93E00E94D3
:1012A0002A0682E391E00E94A90580E10E94990547
:1012B00081E090E00E949F0581E090E00E949F0500
:1012C00088EE93E00E94A4030E9455030E947500DB
:1012D00001E010E092E0E92EF12C0E9489048AE3FB
:1012E00093E00E948A05C0E0D0E0C12CD12C0E947E
:1012F000B9030E94AE050E94D80284E00E94A602B3
:101300008823B1F081E0C816D10429F4F092630378
:10131000E092620304C010936303009362038AE7C0
:101320000E94630086E493E00E948A05C1E0D0E059
:101330000E945900882329F00E945B008A3709F433
:1013400061C02097A1F2C114D10489F20E948904DE
:101350008CE493E00E948A05C1E00E94B9030E94D8
:10136000AE050E94D80280E00E94A602882329F0E0
:1013700089E593E00E948A05C1E082E00E94A6020E
:10138000882329F08EE593E00E948A05C0E084E07E
:101390000E94A602882339F0CC2311F089E701C00E
:1013A0008EE60E9463000E9459008823B1F20E94D9
:1013B0005B00893731F00E945B008E3621F085E7B3
:1013C00003C089E701C08EE6CC23C9F031E020E0FC
:1013D000893709F030E0832F922F892B09F07DCFD8
:1013E0000E9489040E94AE0580E090E0DF91CF91D9
:1013F0001F910F91FF90EF90DF90CF90089580E0C4
:1014000090E0EBCF209709F0A1CFCC24C394D12C4E
:101410006ECF002480FD060E660F11F08695D1F781
:10142000802D08950024552704C0080E591F880FE9
:10143000991F009729F076956795B8F37105B9F76C
:10144000802D952F0895991B79E004C0991F961758
:1014500008F0961B881F7A95C9F780950895AA1BF6
:10146000BB1B51E107C0AA1FBB1FA617B70710F08F
:10147000A61BB70B881F991F5A95A9F780959095C1
:10148000BC01CD01089597FB072E16F4009407D0F8
:1014900077FD09D00E942F0A07FC05D03EF49095F5
:1014A00081959F4F0895709561957F4F0895A1E2B2
:1014B0001A2EAA1BBB1BFD010DC0AA1FBB1FEE1FCE
:1014C000FF1FA217B307E407F50720F0A21BB30B19
:1014D000E40BF50B661F771F881F991F1A9469F795
:1014E00060957095809590959B01AC01BD01CF01F1
:1014F0000895052E97FB1EF400940E94900A57FD54
:1015000007D00E94570A07FC03D04EF40C94900AAF
:1015100050954095309521953F4F4F4F5F4F08951F
:1015200090958095709561957F4F8F4F9F4F08954F
:1015300068940013E894A0E0B0E0E1EAFAE00C94CB
:10154000C00AEFEFE7F959016A015E23550FEE0873
:10155000FE2C87019B01AC019E23990F660B762F11
:10156000CB010E94EF0ACDB7DEB7EAE00C94DC0AAB
:101570002F923F924F925F926F927F928F929F92A3
:10158000AF92BF92CF92DF92EF92FF920F931F9391
:10159000CF93DF93CDB7DEB7CA1BDB0B0FB6F89442
:1015A000DEBF0FBECDBF09942A88398848885F8482
:1015B0006E847D848C849B84AA84B984C884DF80F3
:1015C000EE80FD800C811B81AA81B981CE0FD11DD7
:1015D0000FB6F894DEBF0FBECDBFED010895DF93C7
:1015E000CF939F92A0E49A2E0024D001E001F00155
:1015F00016950795F794E794D794C794B794A79452
:1016000048F41068A20FB31FC41FD51FE61FF71FB1
:10161000081E191E220F331F441F551F661F771FF8
:10162000881F991F9A9421F79D01AE01BF01C00147
:1016300011249F90CF91DF910895FB01DC0141506F
:10164000504048F001900D920020C9F701C01D9252
:0C16500041505040E0F70895F894FFCF9F
:10165C000100000000000014000000000000000069
:10166C00000000000000000000000000000000006E
:10167C00000000000000000000000000000000005E
:10168C000000010507205F050000000000C618637C
:10169C0080014A290000004A7DF59502C417471FB6
:1016AC00016322223206261551930586080000009C
:1016BC008808210802822084880080545709008001
:1016CC00904F0800000060880000800F00000000B0
:1016DC00008C0100222202002EE63AA303C4104221
:1016EC0088032E4244C4072E4207A30388A9F41191
:1016FC00023F8407A3032E8617A3033F424408012D
:10170C002E4617A3032E460FA303C018600C00C06F
:10171C00186088008888200802007CF00100822074
:10172C008888002E424400012E425BAB0344C51F47
:10173C0063042FC617E3032E8610A2032FC618E3EB
:10174C00033F8417C2073F841742002E861EA3074F
:10175C0031C61F63048E10428803104218A3033154
:10176C0095515204218410C20771D71A630471D6A3
:10177C001C63042EC618A3032FC61742002EC6588E
:10178C0093052FC61763042E0607A3039F10420868
:10179C000131C618A30331C618150131C65AAB0264
:1017AC00312AA26204312A4208011F2222C20727D1
:1017BC008410C20120088220000E2184900344452D
:1017CC00000000000000C00782200000000038E884
:1017DC00A30721B419E30300B810A20310DA1CA369
:1017EC000700B8F883034C8A238400C0C7E8A10320
:1017FC0021B419630404184288030830849201212F
:10180C00A4324A02861042880300AC5A630400B426
:10181C0019630400B818A30300BCF8420000D8EC0C
:10182C00210400B419420000B8E0E003421C21245A
:10183C000300C418B30500C418150100C45AAB0248
:10184C00004445540400C4E8A103007C44C4078848
:10185C00104108028410420801821044880000885C
:10186C008A0000000306080A03400080031003806E
:10187C0003200040002000100008000400020001BA
:10188C000380034003200080031020205245414474
:10189C0059205550210020574149540020504C41AB
:1018AC005920414741494E3F002059455300204E95
:0218BC004F00DB
:00000001FF
