:100000000C943A000C9457000C9457000C94570031
:100010000C9457000C9457000C9457000C94570004
:100020000C9457000C9457000C9457000C945700F4
:100030000C9457000C9457000C9457000C945700E4
:100040000C9457000C9457000C9457000C945700D4
:100050000C9457000C9457000C9457000C945700C4
:100060000C9457000C9457000C9457000C945700B4
:100070000C94570011241FBECFEFD4E0DEBFCDBFDC
:1000800013E0A0E0B1E0E0E6F9E102C005900D92D6
:10009000A237B107D9F723E0A2E7B3E001C01D9270
:1000A000A339B207E1F70E948D090C94AE0C0C94B1
:1000B0000000CF93DF9300D0CDB7DEB789831A82DB
:1000C000CE0101960E949A050F900F90DF91CF917B
:1000D00008950C94A1010C94C2010C94A7010C94F6
:1000E000AD010C94B3010E94B3010E94AD018823BD
:1000F000E1F38CE291E00197F1F70E94A1018111F7
:100100000C946B0008950C94C901CF93DF9300D039
:100110001F92CDB7DEB780ED90E09A83898388E0A7
:100120008B83509A589A0E9474018FE690E00E9447
:100130000B0181E090E00E94630161E070E081E0EA
:1001400090E00E944F010E943B01CE0101960E9467
:1001500089010F900F900F90DF91CF910895CF9369
:10016000DF93DC01562FFB0160E070E0C1E0D0E0DE
:100170008E2F851B8417B8F49191BE01092E02C001
:10018000660F771F0A94E2F76F5F7F4F769567954A
:100190006A0F7B1F02C0769567959A95E2F76F3FCD
:1001A000710509F028F7F9016083DF91CF91089577
:1001B000E1E6F0E080E880831082A89584B7877F2D
:1001C00084BFE0E6F0E0808188618083108208953A
:1001D0001092800084E0809381001092850010923C
:1001E0008400089580918400909185000895AC0169
:1001F00080918400909185009C01241B350B283E42
:100200003340B0F708952091840030918500820F2B
:10021000931F0C94F700CF93DF931F92CDB7DEB7F7
:100220009E012F5F3F4F45E063E173E00E94AF0006
:1002300091E0980F909300019981915097BD18BC5F
:1002400095B5977039F095B5209100012770987F8A
:10025000922B95BD298130E0E82FF0E0ED5EFC4F58
:10026000C901008002C0880F991F0A94E2F70F901D
:10027000DF91CF91089585B3897F85BB85B5909136
:1002800000019770887F892B85BD089585B5887F8B
:1002900085BD089585B382FB882780F9089500976E
:1002A00019F0019741F0089584B56295660F660FC5
:1002B000607C8F7305C084B563706295607F8F7CAE
:1002C000682B64BD0895009741F0019759F484B5F7
:1002D0008E7F84BD84B5826002C084B58C7F84BD6E
:1002E00081E0089580E0089514BC15BC16BC18BCCC
:1002F00084B58E7F84BD84B5826084BD81E008951D
:100300009C01215031093093CD0081508093CC0065
:100310000895CF93DF93EC01888199810E94800139
:100320008A819BEF980F943008F088E098E19093D1
:10033000C9008550880F8093CA0081E0DF91CF917A
:1003400008958091C800881F8827881F089580918C
:10035000C80085FB882780F908958091C80086FB36
:10036000882780F90895CF93C82F0E94A70188237A
:10037000E1F39091C80090649093C800C093CE00C0
:10038000CF9108958091C80087FFFCCF8091CE0067
:100390000895CF93DF93EC018991882319F00E948F
:1003A000B301FACFDF91CF910895853098F467308B
:1003B00088F421E030E001C0220F6A95EAF7E82FC7
:1003C000F0E0E758FC4F922F9095808189234111EE
:1003D000822B80830895853080F4673070F4E82F95
:1003E000F0E0E758FC4F81E090E001C0880F6A958B
:1003F000EAF79081982381E009F480E00895609104
:100400007803E62FF0E0E758FC4F80810E944D0210
:10041000809178038F5F853018F480937803089576
:10042000109278030895E9E7F3E0108211821282B6
:100430001382148208950E942B020C9413029C01D3
:10044000FC01FF2784A1832B84A395A1892F832BF3
:1004500085A381E00895CF93DF93C2E2D3E0899131
:1004600099910E941F0283E0C033D807C1F783E04F
:1004700090E40E941F0280E090E80E941F0283E047
:1004800090E10E941F0283E090E80E941F0283E037
:1004900090E2DF91CF910C941F02E0917E03F0E097
:1004A000EE0FFF1FE85EFC4F20813181F901FF272D
:1004B00095A1932B95A3E2E2F3E097E020813181AF
:1004C000D901BB2795962C91959780FF03C0309555
:1004D000232301C0232B95962C9386959150329619
:1004E0009111ECCFE62FF0E0EE0FFF1FE85EFC4F1E
:1004F00080819181FC01FF2785A19095892385A3A7
:1005000060937E0308956230710511F168F46130E3
:10051000710551F5FC01FF2724A1892F8095922FA9
:10052000982394A395A112C06330710541F0643003
:100530007105D1F4FC01FF2784A1892B0FC0FC01B8
:10054000FF2784A1892B84A385A19095892309C0C5
:10055000FC01FF2724A1892F8095822384A385A1F4
:10056000892B85A381E0089580E00895E82FF0E0CD
:10057000EE0FFF1FE158FC4F8081882321F091810D
:1005800081E0892702C080E090E081700895E82F23
:10059000F0E0EE0FFF1FE158FC4F8081811102C097
:1005A000818102C080E090E081700895E82FF0E042
:1005B000EE0FFF1FE158FC4F80810895E82FF0E017
:1005C000EE0FFF1FE158FC4F908181E089270895CD
:1005D0006F927F928F929F92AF92BF92CF92DF9253
:1005E000EF92FF920F931F93CF93DF9300D0CDB77D
:1005F000DEB72FE7622E23E0722E30E3C32E33E006
:10060000D32E812C46E0942EF30180818183F60164
:10061000019111916F015801BB24F50184A1E12ED4
:10062000FF2425A130E02E213F2141E0232B09F4B6
:1006300040E090E08E219F21892B29F0411108C0D4
:1006400023E030E00AC0411106C021E030E005C0DF
:1006500024E030E002C022E030E064E070E0C80155
:1006600029833A830E94830262E070E0C8010E94FD
:100670008302892D8A95F1F7F50183A190E0E822A4
:10068000F92281E029813A81EF2809F080E0F30125
:100690008083B901C8010E9483028394F2E06F0E47
:1006A000711C85E08812B0CF0F900F90DF91CF9131
:1006B0001F910F91FF90EF90DF90CF90BF90AF9080
:1006C0009F908F907F906F9008950895009789F084
:1006D000FC012381621B67FD09C0062E000C770B0D
:1006E000248130E081E0621773070CF080E08170B4
:1006F000089580E00895CF93DF93FC01A62F822F09
:10070000309771F16181461758F59281291740F5AC
:100710009381A91BA7FD24C00A2E000CBB0BC4812A
:10072000D0E0AC17BD07E4F40E947D0B480F658153
:1007300070E0CD010E94860B0696242F2695269503
:100740002695E80FF91FE20FF11D9081892F90E0A7
:10075000477002C0959587954A95E2F7817001C070
:1007600080E0DF91CF910895CF93DF93EC010E9459
:10077000E8009E0140E050E062E17AE780E090E02E
:100780000E94FB0B30938C0320938B03DF91CF915E
:1007900008958091890390918A030E94F700209127
:1007A000890330918A0380918B0390918C03820F8F
:1007B000931F90938A0380938903089541E0611108
:1007C00001C040E0692F0C94D501692F0C94EB0116
:1007D00041E0611101C040E0692F0C94D5014F92B6
:1007E0005F926F927F928F929F92AF92BF92CF92C1
:1007F000DF92EF92FF920F931F93CF93DF931F929D
:10080000CDB7DEB7862E942E5C01E62EF72E262F6E
:10081000660F330B281B310987FD3395072F072EF1
:10082000000C110B091B110997FD139537FF03C02D
:1008300077247A9402C07724739417FF03C0662448
:100840006A9402C066246394290137FF03C051945F
:100850004194510817FF03C01195019511094016E5
:100860005106A4F06201D594C794F92EA81421F181
:10087000692D8A2D9F2D0E94E803C01AD10AD7FE48
:1008800003C0C40CD51CF60CA70CF0CF6801D5949E
:10089000C794E82EB71681F0692D8E2D9B2D798394
:1008A0000E94E803C418D5087981D7FE03C0C00EA2
:1008B000D11EE70CB60CEECF692DC7010F90DF916A
:1008C000CF911F910F91FF90EF90DF90CF90BF904D
:1008D000AF909F908F907F906F905F904F900C940F
:1008E000E803FF920F931F93CF93DF93D82FF92E36
:1008F000162FC72F042F792F0E94EF03402F6D2F43
:100900007C2F8D2F9F2D0E94EF03402F612F7C2F76
:10091000812F9F2D0E94EF03402F612F7C2F8D2F61
:100920009C2F0E94EF03DF91CF911F910F91FF90B9
:1009300008950E941302E1E0F1E0118A14860895FF
:10094000DF92EF92FF920F931F93CF93DF93D82EF6
:100950007B01162F0F2D8091030190910401C0E0BF
:100960000197A1F50F2D0C1BE0910901F0910A01EF
:100970008181C817C0F4D0E08091090190910A01EB
:10098000FC012281D21768F42D2F4C2F6D2D0E946F
:100990007B03682F8D2F8E0D902F0E94E803DF5F61
:1009A000EBCFCF5FDFCFC0E0E0910901F0910A010A
:1009B0008281C81740F460E08C2F8E0D902F0E942A
:1009C000E803CF5FF1CF015031C0CF5F1C2F1E0D68
:1009D000E0910901F0910A018181C817B0F4D0E0DB
:1009E0008091090190910A01FC012281D21768F7D8
:1009F0002D2F4C2F6D2D0E947B03682F812F9D2F53
:100A00009F0D0E94E803DF5FEBCFC0E0E09109019A
:100A1000F0910A018281C81740F460E0812F9C2F79
:100A20009F0D0E94E803CF5FF1CF1F5F812F902FB2
:100A3000DF91CF911F910F91FF90EF90DF9008957C
:100A40001F93CF93DF93182FEC018C2F811B99916B
:100A5000992351F0892F0E94A004BC018C2F811B87
:100A6000653014F477FFF1CFDF91CF911F91089596
:100A70000F931F93CF93DF93EC019B0110920D0115
:100A800040930E01109211010091090110910A0189
:100A90000115110509F449C0F80181816091070130
:100AA0007091080190E00E94860BBC0180910B01BF
:100AB00090910C010E94B10BCB016AE070E00E94A2
:100AC000860B9093100180930F01309306012093C1
:100AD000050140E250E0BE0182E191E00E949F0CDE
:100AE00080910101909102010197F9F4FE010190BA
:100AF0000020E9F7CF010197F8019181692F70E09B
:100B00006F5F7F4F8C1B0E947D0B815020910301F2
:100B1000309104012130310511F095E001C097E0DA
:100B2000981718F48EEF80931101DF91CF911F91E8
:100B30000F91089520910301309104012130310576
:100B400011F070E001C076E04FEF60E00E943805E0
:100B5000089590E090930801809307010895909381
:100B60000201809301010895909304018093030191
:100B7000089590930A0180930901089580918D034F
:100B800090918E03019690938E0380938D03209114
:100B90000F01309110018217930708F469C0109279
:100BA0008E0310928D03E0910D01F0E0EF5FFE4F98
:100BB000818981110AC080910E01823008F458C0E9
:100BC000815080930E0110920D0180910D0190E0F3
:100BD000FC01EF5FFE4F2189222309F449C04091B7
:100BE000010150910201209111014115510521F09F
:100BF0004130510599F024C0211122C060910501B6
:100C0000709106018E5E9E4F0E94200590E0019734
:100C100090910D01890F80930D0112C06091050123
:100C2000709106014091030150910401413051053A
:100C300011F4720F01C0621B8E5E9E4F0E94200550
:100C4000809111018F5F80931101082E000C990B88
:100C5000E0910901F0910A01218130E0281739075C
:100C60003CF41092110180910D018F5F80930D0172
:100C70000C94FF01CF93DF93C1E0D1E09B878A877B
:100C80000E941B0284E190E09F838E83DF91CF91CD
:100C90000C949904182F092FF62E0E94E8000E9448
:100CA000F200C12FD02F8E819F810E94F700E88132
:100CB000F9818A819B8109958E819F812C813D815B
:100CC000280F391F3F832E830E94F200E12FF02F5F
:100CD000AFEFBFEF40E04F1531F326813781BC0104
:100CE000621B730B9B012F3F7FE7370710F4EF0167
:100CF000DACF3195219531092A173B0710F4D90134
:100D0000EF014F5F3896E7CFCF93DF93EC010E945E
:100D10003909CE0143960E94DF0888A5882321F077
:100D2000CE010E946B0805C088818823D1F08150D4
:100D30008883BE01CE010E94B908811118A66EA158
:100D40007FA1CE010E94AC08882359F0CE010E94F9
:100D50004508BE016D5F7F4F88810E94B4079FA345
:100D60008EA3DF91CF910895CF93DF93EC010E9482
:100D70009904CE010E949208CE0143960E949208E7
:100D800088A5882329F061E08EA19FA10E94E80335
:100D9000DF91CF910C94BE05CF93DF93FB0190813F
:100DA000913079F0EB010E944C082D81281306C088
:100DB00081E02E81291303C080E001C081E08170B1
:100DC00001C081E0DF91CF910895CF93DF93FC01C3
:100DD00020A52223D9F1EC010E9499040E94BE05AE
:100DE0000E94E80280E00E94B602882341F0BE0122
:100DF00080E00E94CC06882311F01A8227C082E08E
:100E00000E94B602882341F0BE0182E00E94CC0617
:100E1000882311F082E019C083E00E94B602882383
:100E200041F0BE0183E00E94CC06882311F083E0EC
:100E30000CC081E00E94B602882341F0BE0181E02F
:100E40000E94CC06882311F081E08A83DF91CF9144
:100E50000895EF92FF920F93CF93DF93CDB7DEB754
:100E6000C455D1090FB6F894DEBF0FBECDBF9E01A9
:100E70002F5F3F4F79018130B9F400E022E046E076
:100E800060E0CE018E5B9F4F0E943A0883E1FE0135
:100E9000EE5BFF4FD70101900D928A95E1F702E0DA
:100EA00022E040E064E016C002E022E040E064E0BE
:100EB000CE018E5B9F4F0E943A0883E1FE01EE5BFC
:100EC000FF4FD70101900D928A95E1F700E022E0F3
:100ED00046E060E0CE018E5B9F4F0E943A0883E1BE
:100EE000FE01EE5BFF4FDE01549601900D928A9554
:100EF000E1F782E08FA383E088A781E089A7CE0194
:100F00008A9628E1FC0111922A95E9F724EB36E054
:100F10003BA72AA7FDA6ECA626E130E03FA72EA717
:100F200025EE36E03BAB2AABFDAAECAA2EEB31E076
:100F30003FAB2EAB24E836E03BAF2AAFFDAEECAEC4
:100F40002AE638E13FAF2EAF63E00E944A06CC5A52
:100F5000DF4F0FB6F894DEBF0FBECDBFDF91CF914C
:100F60000F91FF90EF9008954F925F926F927F9252
:100F70008F929F92AF92BF92CF92DF92EF92FF92A9
:100F80001F93CF93DF93182FEB010E94F200409044
:100F90008F0350909003609091037090920329E327
:100FA000420E20E3521E611C711CBC0180E090E0E7
:100FB0002DE63EE446EC51E40E941A0C49015A0128
:100FC000D301C201880D991DAA1DBB1D80938F03FB
:100FD00090939003A0939103B0939203BD0188274F
:100FE000992723E230E040E050E00E94D90B262F01
:100FF0006E018FEFC81AD80A33E2E32EF12CF60106
:1010000030E0A22FB0E03117F1F08081082E000C03
:10101000990B65E070E00E94860BAF0141505109C9
:10102000EA014881840F911D47FD9A953296A817D1
:10103000B90739F4CD010196B7010E94C50B282FDD
:10104000DECF3F5FE0CF822F65E00E94970B282F15
:10105000892F922FDF91CF911F91FF90EF90DF901A
:10106000CF90BF90AF909F908F907F906F905F9048
:101070004F9008950F93FC0181E0808321830283C8
:1010800063834483CF010F910895FC0191819830CF
:1010900010F49F5F91830895282FFB018381948131
:1010A000211105C0915097FF15C096E00895213099
:1010B00029F48F5F853074F080E00895223029F4A0
:1010C0009F5F97303CF090E00895233019F48150F1
:1010D00087FD84E00895CF93DF93EC0188819981A7
:1010E000891710F48F5F88838881815091F0E82FF1
:1010F000F0E0DF011197AA0FBB1FAC0FBD1F1396C5
:101100009C91EE0FFF1FEC0FFD1F93839281948340
:10111000ECCFBE018A810E944C089C838B83DF91B7
:10112000CF9108950F931F93CF938C01C0E0F801E6
:101130008081C81768F4EC2FF0E0EE0FFF1FE00F7E
:10114000F11F61E0838194810E94E803CF5FEFCFBC
:10115000CF911F910F910895FC018381861306C0E2
:1011600091E08481871390E0892F01C080E0817035
:101170000895CF92DF92FF920F931F93CF93DF9347
:101180006C018B01FB01F080C1E0D0E0CF1570F461
:10119000FE01EE0FFF1FE00FF11F63817481C60196
:1011A0000E94AC082196882389F301C080E0DF917A
:1011B000CF911F910F91FF90DF90CF900895CF9224
:1011C000DF92EF92FF920F931F93CF93DF938C01E7
:1011D0000E94F2006C01BC0180E090E00E94EF0AE6
:1011E00020E030E543EC54E40E94540A0E94C00A17
:1011F000EB0139E0E32EF12CCC19DD0945E0D42ECA
:10120000C83EE3E0DE0728F0FE1028C0F801F082B7
:1012100027C0FE14C8F70E946900882389F30E9442
:101220006B0099E0E91204C0893050F7E82EE8CF4E
:10123000833230F72F2D30E0F901EE0FFF1FE00F62
:10124000F11F6D2D0E94A30B9383F9013296EE0FCF
:10125000FF1FE00FF11F8083F394D2CFF8011082BB
:10126000DF91CF911F910F91FF90EF90DF90CF9082
:101270000895AF92BF92CF92DF92EF92FF920F93B9
:101280001F93CF93DF93CDB7DEB7FC010DB71EB729
:101290009081C92ED12C96012E5F3F4F4DB75EB77E
:1012A000421B530B0FB6F8945EBF0FBE4DBFADB7D8
:1012B000BEB711967D01ADB7BEB711969C9334961B
:1012C0004E5F5F4F5A018A2D841B891778F49F0166
:1012D00021503109808165E00E947D0BD9012C915C
:1012E000820FD5018D935D013296EDCFF701EC0DA4
:1012F000FD1D1082C7010E9483000FB6F8941EBF27
:101300000FBE0DBFDF91CF911F910F91FF90EF9016
:10131000DF90CF90BF90AF900895CF92DF92EF9281
:10132000FF920F931F93CF93DF930E94D80088EE14
:1013300093E00E943A0682E391E00E94B90580E1C1
:101340000E94A90581E090E00E94AF058AE393E046
:101350000E949A0581E090E00E94AF0588EE93E03C
:101360000E94B4030E9465030E948500EE24E3946A
:10137000F12C01E010E092E0C92ED12C809176038F
:1013800090917703892B91F50E94C9030E94BE05B5
:101390000E94E80284E00E94B6028823D1F0809186
:1013A000740390917503019729F4D0927303C0924E
:1013B000720304C0109373030093720310937703B6
:1013C000009376038AE70E94730086E493E00E940C
:1013D0009A050E946900882389F20E946B008A376F
:1013E00069F6F0927503E0927403C8CF809174039C
:1013F00090917503892B41F20E9499048CE493E04B
:101400000E949A05C0E7D7E10E94C9030E94BE0569
:101410002197D1F7809172030E9429070E949904B5
:1014200085E593E00E949A05C0EEDEE20E94C903C2
:101430000E94BE052197D1F70E9499048DE593E0A3
:101440000E949A05C1E00E94C9030E94BE050E9445
:10145000E80280E00E94B602882329F089E693E042
:101460000E949A05C1E082E00E94B602882329F01A
:101470008EE693E00E949A05C0E084E00E94B602E6
:10148000882309F3C1117ACF0E9499040E94BE05F6
:1014900080E090E0DF91CF911F910F91FF90EF904E
:1014A000DF90CF9008955058BB27AA270E946B0A5F
:1014B0000C94430B0E94350B38F00E943C0B20F03B
:1014C00039F49F3F19F426F40C94320B0EF4E09596
:1014D000E7FB0C942C0BE92F0E94540B58F3BA171E
:1014E000620773078407950720F079F4A6F50C943A
:1014F000760B0EF4E0950B2EBA2FA02D0B01B9013F
:1015000090010C01CA01A0011124FF27591B99F079
:10151000593F50F4503E68F11A16F040A22F232F85
:10152000342F4427585FF3CF469537952795A795D5
:10153000F0405395C9F77EF41F16BA0B620B730B7C
:10154000840BBAF09150A1F0FF0FBB1F661F771FED
:10155000881FC2F70EC0BA0F621F731F841F48F4A2
:10156000879577956795B795F7959E3F08F0B0CF2B
:101570009395880F08F09927EE0F97958795089512
:101580000E945C0B88F09F5798F0B92F9927B751AC
:10159000B0F0E1F0660F771F881F991F1AF0BA9517
:1015A000C9F714C0B13091F00E94760BB1E00895F4
:1015B0000C94760B672F782F8827B85F39F0B93FE6
:1015C000CCF3869577956795B395D9F73EF49095CA
:1015D0008095709561957F4F8F4F9F4F0895E89448
:1015E00009C097FB3EF490958095709561957F4F6B
:1015F0008F4F9F4F9923A9F0F92F96E9BB27939519
:10160000F695879577956795B795F111F8CFFAF428
:10161000BB0F11F460FF1BC06F5F7F4F8F4F9F4F59
:1016200016C0882311F096E911C0772321F09EE8B7
:10163000872F762F05C0662371F096E8862F70E01D
:1016400060E02AF09A95660F771F881FDAF7880FF7
:101650009695879597F9089597F99F6780E870E0C8
:1016600060E008959FEF80EC089500240A94161618
:10167000170618060906089500240A941216130680
:10168000140605060895092E0394000C11F488230E
:1016900052F0BB0F40F4BF2B11F460FF04C06F5F2A
:1016A0007F4F8F4F9F4F089557FD9058440F551F00
:1016B00059F05F3F71F04795880F97FB991F61F0D4
:1016C0009F3F79F087950895121613061406551F4B
:1016D000F2CF4695F1DF08C0161617061806991FB7
:1016E000F1CF86957105610508940895E894BB27AC
:1016F00066277727CB0197F90895002480FD060E11
:10170000660F11F08695D1F7802D08950024552796
:1017100004C0080E591F880F991F009729F076956D
:101720006795B8F37105B9F7802D952F0895991B2A
:1017300079E004C0991F961708F0961B881F7A95C8
:10174000C9F78095089587FB082E062687FD8195A9
:1017500067FD61950E94970B0EF4919507FC8195AA
:101760000895AA1BBB1B51E107C0AA1FBB1FA617E8
:10177000B70710F0A61BB70B881F991F5A95A9F73A
:1017800080959095BC01CD01089597FB072E16F426
:10179000009407D077FD09D00E94B10B07FC05D05B
:1017A0003EF4909581959F4F0895709561957F4F78
:1017B0000895A1E21A2EAA1BBB1BFD010DC0AA1F92
:1017C000BB1FEE1FFF1FA217B307E407F50720F0AA
:1017D000A21BB30BE40BF50B661F771F881F991F25
:1017E0001A9469F760957095809590959B01AC016E
:1017F000BD01CF010895052E97FB1EF400940E94B1
:10180000120C57FD07D00E94D90B07FC03D04EF4F1
:101810000C94120C50954095309521953F4F4F4FA9
:101820005F4F089590958095709561957F4F8F4F8C
:101830009F4F089568940013E894A0E0B0E0E3E2BD
:10184000FCE00C94420CEFEFE7F959016A015E23CA
:10185000550FEE08FE2C87019B01AC019E23990FCA
:10186000660B762FCB010E94710CCDB7DEB7EAE094
:101870000C945E0C2F923F924F925F926F927F92E8
:101880008F929F92AF92BF92CF92DF92EF92FF9290
:101890000F931F93CF93DF93CDB7DEB7CA1BDB0B3C
:1018A0000FB6F894DEBF0FBECDBF09942A883988E1
:1018B00048885F846E847D848C849B84AA84B984E8
:1018C000C884DF80EE80FD800C811B81AA81B981F4
:1018D000CE0FD11D0FB6F894DEBF0FBECDBFED0108
:1018E0000895DF93CF939F92A0E49A2E0024D00115
:1018F000E001F00116950795F794E794D794C79403
:10190000B794A79448F41068A20FB31FC41FD51F43
:10191000E61FF71F081E191E220F331F441F551FF5
:10192000661F771F881F991F9A9421F79D01AE01AA
:10193000BF01C00111249F90CF91DF910895FB0159
:10194000DC014150504048F001900D920020C9F751
:1019500001C01D9241505040E0F70895F894FFCF28
:101960000100000000000014000000000000000062
:101970000000000000000000000000000000000067
:101980000000000000000000000000000000000057
:101990000000010507205F050000000000C6186375
:1019A00080014A290000004A7DF59502C417471FAF
:1019B0000163222232062615519305860800000095
:1019C00088082108028220848800805457090080FA
:1019D000904F0800000060880000800F00000000A9
:1019E000008C0100222202002EE63AA303C410421A
:1019F00088032E4244C4072E4207A30388A9F4118A
:101A0000023F8407A3032E8617A3033F4244080125
:101A10002E4617A3032E460FA303C018600C00C068
:101A2000186088008888200802007CF0010082206D
:101A30008888002E424400012E425BAB0344C51F40
:101A400063042FC617E3032E8610A2032FC618E3E4
:101A5000033F8417C2073F841742002E861EA30748
:101A600031C61F63048E10428803104218A303314D
:101A700095515204218410C20771D71A630471D69C
:101A80001C63042EC618A3032FC61742002EC65887
:101A900093052FC61763042E0607A3039F10420861
:101AA0000131C618A30331C618150131C65AAB025D
:101AB000312AA26204312A4208011F2222C20727CA
:101AC0008410C20120088220000E21849003444526
:101AD000000000000000C00782200000000038E87D
:101AE000A30721B419E30300B810A20310DA1CA362
:101AF0000700B8F883034C8A238400C0C7E8A10319
:101B000021B4196304041842880308308492012127
:101B1000A4324A02861042880300AC5A630400B41F
:101B200019630400B818A30300BCF8420000D8EC05
:101B3000210400B419420000B8E0E003421C212453
:101B40000300C418B30500C418150100C45AAB0241
:101B5000004445540400C4E8A103007C44C4078841
:101B60001041080284104208018210448800008855
:101B70008A0000000306080A034000800310038067
:101B800003200040002000100008000400020001B3
:101B9000038003400320008003102020524541446D
:101BA00059205550210020574149540020203332FC
:101BB0003120474F002057494E4E455200504C416E
:101BC0005920414741494E3F002059455300204E7E
:021BD0004F00C4
:00000001FF
