:100000000C943A000C9457000C9457000C94570031
:100010000C9457000C9457000C9457000C94570004
:100020000C9457000C9457000C9457000C945700F4
:100030000C9457000C9457000C9457000C945700E4
:100040000C9457000C9457000C9457000C945700D4
:100050000C9457000C9457000C9457000C945700C4
:100060000C9457000C9457000C9457000C945700B4
:100070000C94570011241FBECFEFD4E0DEBFCDBFDC
:1000800011E0A0E0B1E0E6EBFFE002C005900D92C8
:10009000A435B107D9F721E0A4E5B1E001C01D9274
:1000A000AB36B207E1F70E9474060C94D9070C94A2
:1000B00000000C94F500CF93DF93EC010E948303C2
:1000C000CE010E941C0161E08B899C890E94D202B2
:1000D000DF91CF910C94A804CF93DF93FB01908123
:1000E000913079F0EB010E94D6002D81281306C0D3
:1000F00081E02E81291303C080E001C081E081707E
:1001000001C081E0DF91CF910895CF93DF93EC019F
:100110000E9483030E94A8040E94F60580E00E94CA
:10012000C405882341F0BE0180E00E946C00882352
:1001300011F01A8227C082E00E94C405882341F092
:10014000BE0182E00E946C00882311F082E019C099
:1001500083E00E94C405882341F0BE0183E00E9431
:100160006C00882311F083E00CC081E00E94C4057C
:10017000882341F0BE0181E00E946C00882311F0C9
:1001800081E08A83DF91CF910895FC0181E0808333
:1001900082E08183128263834483CF010895FC014E
:1001A0009181983010F49F5F91830895282FFB016F
:1001B00083819481211105C0915097FF15C096E06D
:1001C0000895213029F48F5F853074F080E0089520
:1001D000223029F49F5F97303CF090E0089523305F
:1001E00019F4815087FD84E00895CF93DF93EC01EB
:1001F00088819981891710F48F5F88838881815065
:1002000091F0E82FF0E0DF011197AA0FBB1FAC0FB0
:10021000BD1F13969C91EE0FFF1FEC0FFD1F9383E4
:1002200092819483ECCFBE018A810E94D6009C8388
:100230008B83DF91CF9108950F931F93CF938C0100
:10024000C0E0F8018081C81768F4EC2FF0E0EE0FF1
:10025000FF1FE00FF11F61E0838194810E94D202B1
:10026000CF5FEFCFCF911F910F9108954F925F9283
:100270006F927F928F929F92AF92BF92CF92DF92B6
:10028000EF92FF921F93CF93DF93182FEB010E9401
:100290003E05409054015090550160905601709079
:1002A000570129E3420E20E3521E611C711CBC0160
:1002B00080E090E02DE63EE446EC51E40E944507E4
:1002C00049015A01D301C201880D991DAA1DBB1D08
:1002D0008093540190935501A0935601B093570118
:1002E000BD018827992723E230E040E050E00E94DA
:1002F0002307262F6E018FEFC81AD80A33E2E32EA8
:10030000F12CF60130E0A22FB0E03117F1F080813E
:10031000082E000C990B65E070E00E94DE06AF012C
:1003200041505109EA014881840F911D47FD9A957A
:100330003296A817B90739F4CD010196B7010E948A
:100340000F07282FDECF3F5FE0CF822F65E00E94AE
:10035000EF06282F892F922FDF91CF911F91FF90C9
:10036000EF90DF90CF90BF90AF909F908F907F9055
:100370006F905F904F900895E1E6F0E080E8808311
:100380001082A89584B7877F84BFE0E6F0E0808183
:100390008861808310820895853098F4673088F4EE
:1003A00021E030E001C0220F6A95EAF7E82FF0E083
:1003B000E75AFE4F922F9095808189234111822B1D
:1003C00080830895853080F4673070F4E82FF0E082
:1003D000E75AFE4F81E090E001C0880F6A95EAF786
:1003E0009081982381E009F480E00895609158019C
:1003F000E62FF0E0E75AFE4F80810E944402809190
:1004000058018F5F853018F4809358010895109239
:1004100058010895E9E5F1E01082118212821382F9
:10042000148208950E9422020C940A029C01FC018D
:10043000FF2784A1832B84A395A1892F832B85A3D8
:1004400081E00895CF93DF93CBE3D1E08991999137
:100450000E94160281E0C934D807C1F783E090E416
:100460000E94160280E090E80E94160283E090E16C
:100470000E94160283E090E80E94160283E090E258
:10048000DF91CF910C941602E0915E01F0E0EE0F47
:10049000FF1FEF5CFE4F20813181F901FF2795A1FD
:1004A000932B95A3EBE3F1E097E020813181D90113
:1004B000BB2795962C91959780FF03C030952323F9
:1004C00001C0232B95962C938695915032969111CD
:1004D000ECCFE62FF0E0EE0FFF1FEF5CFE4F8081C8
:1004E0009181FC01FF2785A19095892385A36093C5
:1004F0005E010895009789F0FC012381621B67FD6E
:1005000009C0062E000C770B248130E081E06217D1
:1005100073070CF080E08170089580E00895CF9318
:10052000DF93FC01A62F822F309771F1618146176E
:1005300058F59281291740F59381A91BA7FD24C086
:100540000A2E000CBB0BC481D0E0AC17BD07E4F44D
:100550000E94D506480F658170E0CD010E94DE063D
:100560000696242F269526952695E80FF91FE20F6B
:10057000F11D9081892F90E0477002C09595879575
:100580004A95E2F7817001C080E0DF91CF91089534
:1005900041E0611101C040E0692F0C94CC01692F4A
:1005A0000C94E20141E0611101C040E0692F0C941C
:1005B000CC014F925F926F927F928F929F92AF92F7
:1005C000BF92CF92DF92EF92FF920F931F93CF9340
:1005D000DF931F92CDB7DEB7862E942E5C01E62EF8
:1005E000F72E262F660F330B281B310987FD339515
:1005F000072F072E000C110B091B110997FD1395EE
:1006000037FF03C077247A9402C07724739417FFCE
:1006100003C066246A9402C066246394290137FFEC
:1006200003C051944194510817FF03C011950195DF
:10063000110940165106A4F06201D594C794F92E11
:10064000A81421F1692D8A2D9F2D0E94D202C01A73
:10065000D10AD7FE03C0C40CD51CF60CA70CF0CFF2
:100660006801D594C794E82EB71681F0692D8E2DB8
:100670009B2D79830E94D202C418D5087981D7FEB8
:1006800003C0C00ED11EE70CB60CEECF692DC7011A
:100690000F90DF91CF911F910F91FF90EF90DF901E
:1006A000CF90BF90AF909F908F907F906F905F9012
:1006B0004F900C94D202FF920F931F93CF93DF932E
:1006C000D82FF92E162FC72F042F792F0E94D90269
:1006D000402F6D2F7C2F8D2F9F2D0E94D902402FF0
:1006E000612F7C2F812F9F2D0E94D902402F612FD7
:1006F0007C2F8D2F9C2F0E94D902DF91CF911F91CB
:100700000F91FF9008950E940A02E0E0F1E0118A43
:1007100014860895DF92EF92FF920F931F93CF9369
:10072000DF93D82E7B01162F0F2D8091020190911F
:100730000301C0E00197A1F50F2D0C1BE09108010A
:10074000F09109018181C817C0F4D0E080910801BF
:1007500090910901FC012281D21768F42D2F4C2FB2
:100760006D2D0E948F02682F8D2F8E0D902F0E946D
:10077000D202DF5FEBCFCF5FDFCFC0E0E0910801B7
:10078000F09109018281C81740F460E08C2F8E0D32
:10079000902F0E94D202CF5FF1CF015031C0CF5FC6
:1007A0001C2F1E0DE0910801F09109018181C817ED
:1007B000B0F4D0E08091080190910901FC01228100
:1007C000D21768F72D2F4C2F6D2D0E948F02682FA6
:1007D000812F9D2F9F0D0E94D202DF5FEBCFC0E0E3
:1007E000E0910801F09109018281C81740F460E0AE
:1007F000812F9C2F9F0D0E94D202CF5FF1CF1F5FF0
:10080000812F902FDF91CF911F910F91FF90EF904B
:10081000DF9008951F93CF93DF93182FEC018C2F57
:10082000811B9991992351F0892F0E948A03BC0161
:100830008C2F811B653014F477FFF1CFDF91CF91BE
:100840001F9108950F931F93CF93DF93EC019B01AA
:1008500010920C0140930D011092100100910801BB
:10086000109109010115110509F449C0F8018181B0
:10087000609106017091070190E00E94DE06BC01C4
:1008800080910A0190910B010E94FB06CB016AE066
:1008900070E00E94DE0690930F0180930E0130936A
:1008A00005012093040140E250E0BE0181E191E0A6
:1008B0000E94CA0780910001909101010197F9F40B
:1008C000FE0101900020E9F7CF010197F801918125
:1008D000692F70E06F5F7F4F8C1B0E94D50681509F
:1008E00020910201309103012130310511F095E092
:1008F00001C097E0981718F48EEF80931001DF91F4
:10090000CF911F910F910895209102013091030121
:100910002130310511F070E001C076E04FEF60E06A
:100920000E942204089590E09093070180930601AD
:10093000089590930101809300010895909303011D
:10094000809302010895909309018093080108950E
:1009500080915F0190916001019690936001809376
:100960005F0120910E0130910F018217930708F467
:1009700069C01092600110925F01E0910C01F0E0FB
:10098000E050FF4F818981110AC080910D018230B2
:1009900008F458C0815080930D0110920C01809191
:1009A0000C0190E0FC01E050FF4F2189222309F463
:1009B00049C0409100015091010120911001411561
:1009C000510521F04130510599F024C0211122C078
:1009D00060910401709105018F5E9E4F0E940A0490
:1009E00090E0019790910C01890F80930C0112C047
:1009F0006091040170910501409102015091030141
:100A00004130510511F4720F01C0621B8F5E9E4F81
:100A10000E940A04809110018F5F80931001082EBC
:100A2000000C990BE0910801F0910901218130E05F
:100A3000281739073CF41092100180910C018F5F48
:100A400080930C010C94F601CF93DF93C0E0D1E0CA
:100A50009B878A870E94120284E190E09F838E83A5
:100A6000DF91CF910C9483031092800084E08093F7
:100A70008100109285001092840008958091840076
:100A8000909185000895AC0180918400909185003B
:100A90009C01241B350B283E3340B0F7089520916C
:100AA000840030918500820F931F0C944305182F0A
:100AB000092FF62E0E9434050E943E05C12FD02F2B
:100AC0008E819F810E944305E881F9818A819B8103
:100AD00009958E819F812C813D81280F391F3F838D
:100AE0002E830E943E05E12FF02FAFEFBFEF40E0D5
:100AF0004F1531F326813781BC01621B730B9B01BB
:100B00002F3F7FE7370710F4EF01DACF31952195BA
:100B100031092A173B0710F4D901EF014F5F3896CE
:100B2000E7CF6230710511F168F46130710551F55C
:100B3000FC01FF2724A1892F8095922F982394A34D
:100B400095A112C06330710541F064307105D1F494
:100B5000FC01FF2784A1892B0FC0FC01FF2784A182
:100B6000892B84A385A19095892309C0FC01FF27C7
:100B700024A1892F8095822384A385A1892B85A315
:100B800081E0089580E00895E82FF0E0EE0FFF1F68
:100B9000EF59FE4F8081882321F0918181E08927E0
:100BA00002C080E090E081700895E82FF0E0EE0F41
:100BB000FF1FEF59FE4F8081811102C0818102C069
:100BC00080E090E081700895E82FF0E0EE0FFF1FC5
:100BD000EF59FE4F80810895E82FF0E0EE0FFF1FE0
:100BE000EF59FE4F908181E0892708956F927F929F
:100BF0008F929F92AF92BF92CF92DF92EF92FF922D
:100C00000F931F93CF93DF9300D0CDB7DEB721E6CC
:100C1000622E21E0722E39E4C32E31E0D32E812CD6
:100C200046E0942EF30180818183F60101911191B8
:100C30006F015801BB24F50184A1E12EFF2425A1F9
:100C400030E02E213F2141E0232B09F440E090E0E9
:100C50008E219F21892B29F0411108C023E030E02B
:100C60000AC0411106C021E030E005C024E030E0B8
:100C700002C022E030E064E070E0C80129833A83DA
:100C80000E94910562E070E0C8010E949105892DE3
:100C90008A95F1F7F50183A190E0E822F92281E03D
:100CA00029813A81EF2809F080E0F3018083B901BE
:100CB000C8010E9491058394F2E06F0E711C85E0DB
:100CC0008812B0CF0F900F90DF91CF911F910F91AD
:100CD000FF90EF90DF90CF90BF90AF909F908F905C
:100CE0007F906F90089508950F931F93CF93DF9394
:100CF000CDB7DEB7C054D1090FB6F894DEBF0FBE32
:100D0000CDBF46E060E0CE018E960E94C50083E133
:100D1000FE01BE96DE01599601900D928A95E1F78B
:100D200082E08CA783E08DA78E010F5F1F4F88E1C3
:100D3000F80111928A95E9F78BE590E09A8389830F
:100D40009E01275E3F4F3C832B8386E090E09E838D
:100D50008D8385E890E09A8789873C872B878EEB87
:100D600091E09E878D8789E590E09A8B898B3C8BFB
:100D70002B8B85E39CE09E8B8D8B88E893E10E9412
:100D800024050E94730663E0C8010E94570580E0B5
:100D900090E0C05CDF4F0FB6F894DEBF0FBECDBF52
:100DA000DF91CF911F910F910895002480FD060ED1
:100DB000660F11F08695D1F7802D089500245527F0
:100DC00004C0080E591F880F991F009729F07695C7
:100DD0006795B8F37105B9F7802D952F0895991B84
:100DE00079E004C0991F961708F0961B881F7A9522
:100DF000C9F780950895AA1BBB1B51E107C0AA1F24
:100E0000BB1FA617B70710F0A61BB70B881F991FAB
:100E10005A95A9F780959095BC01CD01089597FB4F
:100E2000072E16F4009407D077FD09D00E94FB0628
:100E300007FC05D03EF4909581959F4F08957095DD
:100E400061957F4F0895A1E21A2EAA1BBB1BFD01DD
:100E50000DC0AA1FBB1FEE1FFF1FA217B307E40799
:100E6000F50720F0A21BB30BE40BF50B661F771FF1
:100E7000881F991F1A9469F76095709580959095D1
:100E80009B01AC01BD01CF01089568940013E89463
:100E9000A0E0B0E0EEE4F7E00C946D07EFEFE7F9C7
:100EA00059016A015E23550FEE08FE2C87019B0154
:100EB000AC019E23990F660B762FCB010E949C07F5
:100EC000CDB7DEB7EAE00C9489072F923F924F929C
:100ED0005F926F927F928F929F92AF92BF92CF92CA
:100EE000DF92EF92FF920F931F93CF93DF93CDB7D3
:100EF000DEB7CA1BDB0B0FB6F894DEBF0FBECDBF4B
:100F000009942A88398848885F846E847D848C841B
:100F10009B84AA84B984C884DF80EE80FD800C8124
:100F20001B81AA81B981CE0FD11D0FB6F894DEBF07
:100F30000FBECDBFED010895DF93CF939F92A0E444
:100F40009A2E0024D001E001F00116950795F79440
:100F5000E794D794C794B794A79448F41068A20F65
:100F6000B31FC41FD51FE61FF71F081E191E220F2F
:100F7000331F441F551F661F771F881F991F9A94A0
:100F800021F79D01AE01BF01C00111249F90CF91B7
:100F9000DF910895FB01DC014150504048F0019081
:100FA0000D920020C9F701C01D9241505040E0F75A
:060FB0000895F894FFCF44
:100FB6000000000000001400000000000000000017
:100FC600000000000000000000000000000000001B
:100FD600000000000000000000000000000000000B
:100FE600000340008003100380032000400020001F
:100FF60010000800040002000103800340032000E3
:041006008003100053
:00000001FF
